:020000040800F2
:10000000C0120020791A0008D5010008D7010008A5
:10001000DB010008DF010008E30100080000000028
:10002000000000000000000000000000E7010008E0
:10003000E901000800000000EB010008ED010008E4
:10004000931A0008931A0008931A0008931A0008DC
:10005000931A0008931A0008931A0008931A0008CC
:10006000931A00084B160008931A0008931A000808
:10007000931A0008931A0008931A0008931A0008AC
:10008000931A0008931A0008931A0008931A00089C
:10009000931A0008931A0008931A0008F51500082F
:1000A000931A0008931A0008931A0008931A00087C
:1000B000931A00081B150008DF150008931A0008A2
:1000C000931A0008931A0008931A0008931A00085C
:1000D000931A000891180008931A0008931A000850
:1000E000931A0008931A0008931A0008931A00083C
:1000F000931A0008931A0008931A0008931A00082C
:10010000931A0008931A0008931A0008931A00081B
:10011000931A0008931A0008931A0008931A00080B
:10012000931A0008931A0008931A0008931A0008FB
:1001300000F002F800F03FF80AA090E8000C8244BA
:100140008344AAF10107DA4501D100F034F8AFF297
:10015000090EBAE80F0013F0010F18BFFB1A43F0A5
:10016000010318473848000058480000103A24BFDF
:1001700078C878C1FAD8520724BF30C830C144BF0C
:1001800004680C607047000000230024002500264E
:10019000103A28BF78C1FBD8520728BF30C148BFEA
:1001A0000B607047732904F08E80002070471FB5E4
:1001B0001FBD10B510BD04F0B9F81146FFF7F7FFE9
:1001C00003F0FEFA04F0D7F803B4FFF7F2FF03BC24
:1001D00001F0F2FA704700BFFEE700BFFEE700BF84
:1001E000FEE700BFFEE770477047704770470000AA
:1001F0000CB50020019000906B48006840F48030FE
:100200006949086000BF6848006800F40030009049
:100210000198401C0190009818B90198B0F5A06FA2
:10022000F1D16148006810F4003F02D00120009035
:1002300001E0002000900098012842D15B4800684E
:1002400040F01000594908600846006820F003009B
:1002500008600846006840F00200086052484068A4
:10026000514948600846406848600846406840F484
:10027000806048600846406820F47C10486008466A
:10028000406840F4E81048600846006840F080701C
:10029000086000BF4448006810F0007FFAD0424870
:1002A000406820F00300404948600846406840F03C
:1002B0000200486000BF3C48406800F00C0008287D
:1002C000F9D10CBD10B5FFF793FF10BD10B536483E
:1002D000006840F00100344908600846406834492D
:1002E00008403149486008460068324908402E49B4
:1002F00008600846006820F48020086008464068CE
:1003000020F4FE0048604FF41F008860FFF7DAFF1A
:100310004FF000602849086010BD10B50021002092
:100320000022214B5B6803F00C0121B1042906D0A7
:10033000082928D107E0214B214C236027E01F4BDF
:100340001F4C236023E0184B5B6803F47010164BBE
:100350005B6803F48032022303EB904022B9194B0F
:100360004343174C23600DE00F4B5B6813F4003FD1
:1003700004D0144B4343124C236003E00F4B434320
:100380000F4C236003E00D4B0D4C236000BF00BFFA
:10039000054B5B68C3F303130B4CE15C084B1B6814
:1003A000CB40074C236010BD0010024000200240EB
:1003B0000000FFF8FFFFF6FE08ED00E000127A00F3
:1003C0000000002000093D000400002008B50121C4
:1003D000242001F0F5FE0120ADF8000010208DF87A
:1003E000030003208DF8020069464D4801F032FCFD
:1003F00001214B4801F0D9FC0220ADF8000010208B
:100400008DF8030003208DF802006946444801F08E
:1004100021FC0221424801F0C8FC0420ADF8000094
:1004200010208DF8030003208DF8020069463C4837
:1004300001F010FC04213A4801F0B7FC0820ADF8A7
:10044000000010208DF8030003208DF8020069469B
:10045000334801F0FFFB0821314801F0A6FC1020D1
:10046000ADF800008DF8030003208DF80200694606
:100470002B4801F0EFFB1021294801F096FC2020C9
:10048000ADF8000010208DF8030003208DF8020065
:100490006946234801F0DEFB2021214801F085FC5C
:1004A0004020ADF8000010208DF8030003208DF8E7
:1004B000020069461A4801F0CDFB4021184801F0BE
:1004C00074FC0220ADF8000004208DF8030069469A
:1004D000144801F0BFFB0120ADF8000010208DF89A
:1004E000030003208DF8020069460E4801F0B2FBBC
:1004F00000200D4908604FF40070ADF800004FF087
:1005000010008DF803004FF003008DF802006946DB
:10051000034801F09FFB00200449C1F8A40108BD75
:10052000001401400010014080012242008022425C
:1005300008B50121342001F043FE2020ADF8000071
:1005400048208DF803006946304801F083FB4020C5
:10055000ADF8000048208DF8030069462C4801F0F2
:1005600079FB0120ADF8000028208DF803006946D2
:10057000284801F06FFB08BD10B5044614B10120F6
:10058000254908702448007858B320211F4801F0FD
:10059000F2FB50B140211E4801F0EDFB28B10121D2
:1005A0001C4801F0E8FB01281BD10A2001F0B8F833
:1005B0000020194908700121164801F0DCFB0128D0
:1005C00001D1032010BD2021104801F0D4FB08B94F
:1005D0000120F7E740210E4801F0CDFBA0B9022031
:1005E000F0E701210B4801F0C6FB68B9202107485C
:1005F00001F0C1FB012807D14021054801F0BBFBF8
:10060000012801D1044908700020DBE700100140F7
:10061000001401400008014014000020F648006862
:1006200020F47040F44908600846006840F4004037
:1006300008607047F048006820F47040EE49086098
:100640000846006840F440500860704708B5012132
:100650000C2001F0B5FD1020ADF8000048208DF809
:1006600003006946E44801F0F5FA2020ADF80000E7
:1006700010208DF8030003208DF802006946DE4843
:1006800001F0E8FA4020ADF8000048208DF80300A2
:100690006946D94801F0DEFA4020ADF80000482054
:1006A0008DF803006946D54801F0D4FA0120D449F9
:1006B00008604FF00000D349C1F8940108BD70B53F
:1006C0000546002405E0601CC4B2C82C01DD0020F2
:1006D00070BD0221CC4803F03CF80028F3D0294635
:1006E000C94802F0E3FF002400BF0121C64803F01F
:1006F00030F80028F9D0601CC4B2C82C01DD0020FD
:10070000E6E7C14802F0D4FFC0B2E1E700B587B028
:10071000012141F2040001F053FD7020ADF81800F2
:1007200018208DF81B0003208DF81A0006A9B24886
:1007300001F090FA7021B04801F037FB0020ADF8CD
:100740000400ADF80600ADF808000220ADF80A007C
:100750000120ADF80C004002ADF80E003820ADF8D5
:1007600010000020ADF812000720ADF8140001A918
:10077000A64802F0C5FE0121A44802F066FFFF2052
:10078000FFF79DFF07B000BD00B587B0012108202D
:1007900001F016FD0121880301F01FFD4FF46040B8
:1007A000ADF8180018208DF81B0003208DF81A00F2
:1007B00006A9924801F04EFA4FF460418F4801F0CB
:1007C000F4FA0020ADF804004FF48270ADF8060092
:1007D0000020ADF808000220ADF80A000120ADF8B5
:1007E0000C004002ADF80E001820ADF810000020FB
:1007F000ADF812000720ADF8140001A9824802F0FC
:100800007FFE0121804802F020FFFF20FFF757FF05
:1008100007B000BD10B504467B4800884FF6C7718D
:100820000840794908800846008820430880012153
:10083000754802F00AFF10BD10B5044673480088E1
:100840004FF6C77108407149088008460088204368
:10085000088001216D4802F0F8FE10BD70B5054614
:10086000002405E0601CC4B2C82C01DD002070BD6E
:100870000221664802F06DFF0028F3D02946634844
:1008800002F014FF002405E0601CC4B2C82C01DD96
:100890000020ECE701215D4802F05BFF0028F3D067
:1008A0005A4802F005FFC0B2E1E770B504460025E2
:1008B0001DE014F0800F03D001205549086002E0CC
:1008C0000020534908604FF0010000F006FF0120AE
:1008D0005049086000F001FF00204A49C1F8940126
:1008E0006006040E012000F0F8FE681CC5B2082D59
:1008F000DFDB70BD70B50446002045490860054641
:100900001FE014F4004F03D001204149086002E0C9
:1009100000203F4908604FF0010000F0DEFE01209A
:100920003C49086000F0D9FE00203649C1F8940126
:100930004FF6FF7000EA4404012000F0CEFE681C70
:10094000C5B2102DDDDB70BD70B50024002030492C
:100950000860FFF763FE00251EE04021264801F0F5
:100960000AFA20B1012040EA440084B203E04FF6C5
:10097000FF7000EA4404012000F0AFFE0120254989
:10098000086000F0AAFE00201E49C1F89401012071
:1009900000F0A3FE681CC5B2102DDEDBFFF74AFE97
:1009A000204670BD70B50024FFF738FE00251CE01E
:1009B0004021114801F0DFF920B1012040EA440054
:1009C000C4B201E06006040E012000F086FE0120A2
:1009D0001049086000F081FE00200A49C1F8940126
:1009E000012000F07AFE681CC5B2082DE0DBFFF79D
:1009F00021FE204670BD000000080140000C0140AF
:100A000090012142000021420038004000300140A6
:100A1000980121429401214270B504460D46002000
:100A2000FE49086000BF2046FFF73FFF0A2000F0A4
:100A300054FE2846FFF75EFF0A2000F04EFE01201C
:100A4000F749C1F8900170BD70B504460020F34924
:100A5000086044F080042046FFF727FF0A2000F0DA
:100A60003CFEFFF771FF05460A2000F036FE01202C
:100A7000EB49C1F89001284670BD70B504460E469A
:100A80002546E848C08940EA053085B22946072056
:100A9000FFF7C2FF31460820FFF7BEFF70BD70B5FB
:100AA00004460E462546DF48C08940EAC51085B297
:100AB00029460720FFF7B0FF31460920FFF7ACFFBA
:100AC00070BD70B504462546D648C08940EA053059
:100AD00085B229460720FFF79FFF0820FFF7B4FFE4
:100AE0000546284670BD00BF1FE0CF48006880F073
:100AF0000100CE49C1F884010846D0F8880180F091
:100B00000100C1F888010846D0F88C0180F001008E
:100B1000C1F88C010846D0F8900180F00100C1F8BE
:100B200090014FF47A7000F0FBFDDEE710B504464B
:100B30000020BA4908602046FFF7B7FE0120B849F7
:100B4000C1F8900110BD70B504461420FFF7EEFF08
:100B5000B748408B00F47F45601E284381B20D20CA
:100B6000FFF78BFFB248808A4CF2FF0100EA0105D3
:100B700029460A20FFF781FF002070BD70B50024D0
:100B800007E0A84830F814102046FFF745FF601C26
:100B9000C4B2082CF5DB0A2407E0A24830F8141090
:100BA0002046FFF739FF601CC4B2102CF5DB00248F
:100BB00007E09F4830F814102046FFF75EFF601CE6
:100BC000C4B2102CF5DB002407E09A4830F814106A
:100BD0002046FFF764FF601CC4B2052CF5DB0C2037
:100BE000FFF7B1FF0020FFF72FFF05468D48008873
:100BF000A84201D0FFF777FF70BD2DE9F041894889
:100C0000C08B40F6020240EA02010F20FFF704FF0A
:100C100000BF0F20FFF718FF044640F60200044211
:100C2000F7D10E20FFF710FF0446C4F300150DB1F5
:100C3000FFF759FF0A20FFF744FF0446C4F30017EB
:100C40000FB1FFF750FF4FF498410C20FFF7E4FE7F
:100C50004FF478410220FFF710FF7548008840F4F8
:100C600060410020FFF709FF6E48C08B40F48051BF
:100C70000F20FFF7D1FE00BF0F20FFF7E5FE04466F
:100C800014F4805FF8D16748018B0C20FFF7C4FE95
:100C9000674881880220FFF7F0FE65480188002040
:100CA000FFF7EBFE5F48C08B40F004010F20FFF719
:100CB000B3FE00BF0F20FFF7C7FE044614F0040F79
:100CC000F8D10E20FFF7C0FE0446C4F300260EB193
:100CD000FFF709FF0020BDE8F0812DE9F05F06462F
:100CE0005549304603F0C0FB8246504603F07EFC77
:100CF000C4B2204603F09AFC83464FF07E5103F0C5
:100D0000DDFC8146514603F0A5FD07464FF08F41BB
:100D1000384603F0D3FC814603F068FC1FFA80F8E4
:100D20001420FFF703FF3F48C088C0F30E05294693
:100D30000320FFF771FE3B488089C0F30B0529466D
:100D40000620FFF769FE3D49304603F083FC06D2DA
:100D5000344800894EF6FF7100EA010503E031488E
:100D6000008940F4805529460420FFF755FE2D48A0
:100D7000408800F47F4545EA04010120FFF74CFE5E
:100D800041460220FFF748FE00210220FFF787FEC0
:100D9000BDE8F09F70B5FF254FF6FF7624488088A8
:100DA00040F010010220FFF768FE00BF2048C08B12
:100DB00040F001010F20FFF760FE00BF0F20FFF79A
:100DC00080FE00F0010424B13000A6F101018EB2D2
:100DD000F4D10F20FFF775FEC0F34804BA2C03DDF1
:100DE000C62C01DA052070BD2800A5F10101CDB2A5
:100DF000DCD10420F7E710B50B48006880F0010053
:100E00000A49C1F884010846D0F8880180F0010041
:100E1000C1F888010846D0F88C0111E09001214208
:100E2000000021425249000884812242008022426F
:100E30007249000892490008CDCC4C41000057444B
:100E400080F00100C1F88C010846D0F8900180F0D4
:100E50000100FE4908604FF0640000F061FCFC48AE
:100E6000D0F8840180F00100F949C1F884010846F6
:100E7000D0F8880180F00100C1F888010846D0F858
:100E80008C0180F00100C1F88C010846D0F8900177
:100E900080F00100ED4908604FF0640000F040FC74
:100EA000EB48D0F8840180F00100E949C1F88401E1
:100EB0000846D0F8880180F00100C1F88801084692
:100EC000D0F88C0180F00100C1F88C010846D0F800
:100ED000900180F00100DD4908604FF0640000F0EF
:100EE0001FFCDB48D0F8840180F00100D849C1F82C
:100EF00084010846D0F8880180F00100C1F888011B
:100F00000846D0F88C0180F00100C1F88C01084639
:100F1000D0F8900180F00100C1F8900110BD10B52B
:100F200004460020CB4908604FF02000FFF7BDFCCD
:100F3000200EFFF7BAFCC4F30740FFF7B6FCC4F37A
:100F40000720FFF7B2FCE0B2FFF7AFFC0120C24977
:100F5000C1F89001002010BD10B504460120BD4924
:100F600008604FF00000BC49C1F894014FF0010047
:100F7000BA4908604FF07000FFF7D8FD0A2000F072
:100F8000CFFBFFF7FBFD0A2000F0CAFBB448FFF7D8
:100F9000C6FF012000F0C4FB2046FFF79EFE0A209A
:100FA00000F0BEFBFFF729FEFFF725FF1420FFF737
:100FB000BDFD012010BD70B50024AA48C0894FF2C4
:100FC000CF710840044321460720FFF725FD092083
:100FD000FFF73AFD0546284670BD10B504461420BB
:100FE000FFF7A4FD142000F09BFB9E48C0894FF63C
:100FF000FE7200EA02010720FFF70EFD322C2AD014
:1010000004DC022C07D00A2C44D114E0642C31D02B
:10101000962C3FD13DE046F221610020FFF7FCFC19
:1010200041F6D4010A20FFF7F7FC4FF205510020EA
:10103000FFF723FD3AE041F221210020FFF7ECFC0D
:1010400041F6D4010A20FFF7E7FC4FF206710020B9
:10105000FFF713FD2AE023210020FFF7DDFC41F616
:10106000D0010A20FFF7D8FC4FF206610020FFF7FD
:1010700004FD1BE021210020FFF7CEFC41F6D40146
:101080000A20FFF7C9FC4FF206710020FFF7F5FCBC
:101090000CE00BE07348C08940F001010720FFF726
:1010A000BBFC142000F03CFB012010BD00BF6D48CC
:1010B000C08940F001010720FFF7AEFC142000F0CA
:1010C0002FFB0020F1E710B50446022C02D0042CBF
:1010D0001BD109E06348808B4BF6FB7200EA0201EA
:1010E0000E20FFF7CAFC12E05E48808B4BF6FB72C5
:1010F00000EA02010E20FFF7C0FC5A48808B40F046
:1011000004010E20FFF7B9FC01E0012010BD00BF73
:101110000020FBE770B504460D466020FFF706FD92
:10112000012000F0FDFA00204A4908604FF040001D
:10113000FFF7BBFB03E014F8010BFFF7B6FB280039
:10114000A5F10101CDB2F6D101204249086070BD80
:1011500070B504460D46E020FFF7E8FC022000F0E1
:10116000BCFA00203B4908604FF0C000FFF79DFB30
:1011700003E0FFF717FC04F8010B2800A5F10101BB
:10118000CDB2F6D101203349086070BD70B5044678
:10119000022C01DB072C01DD012070BD1420FFF7BC
:1011A000C5FC304800894FF6F07100EA010545EAB8
:1011B000440040F001010420FFF75FFC0A2000F02A
:1011C0008CFA0120FFF77DFCC0F3C01080F0010015
:1011D000E3E770B54FF6FF751820FFF7A7FC21482D
:1011E000008B4FF6FF6200EA02010C20FFF714FCAF
:1011F0000F20FFF729FC40F0010631460F20FFF7D2
:101200000BFC00BF0F20FFF71FFC00F001042800BB
:10121000A5F101018DB201D0002CF3D1002D04DD28
:101220000C20FFF711FCC4B200E000241420FFF7EB
:101230007DFC052000F051FA1620FFF777FC052011
:1012400000F04BFA1820FFF771FC0DE0908122426C
:101250000080224290012142000021429801214257
:101260008CC5753452490008052000F036FA204636
:1012700070BD10B5FFF78EFD042800D110BD1420FD
:10128000FFF754FC45210820FFF7F7FB40F27F21D0
:101290000120FFF7F2FB7248408B40F480610D2083
:1012A000FFF7BAFB6E48C08B40F400710F20FFF7C8
:1012B000B3FB0020E2E710B51420FFF737FC45210F
:1012C0000820FFF7DAFB4FF605410120FFF7D5FBB9
:1012D000FFF760FD042800D110BD6248808840F00F
:1012E00010010220FFF7C9FB5D48C08B40F400717C
:1012F0000F20FFF791FB0020EEE710B51420FFF759
:1013000015FC4D210820FFF7B8FB4FF605410120E1
:10131000FFF7B3FBFFF73EFD042800D110BD514895
:10132000808840F030010220FFF7A7FB4C48C08BBB
:1013300040F400710F20FFF76FFB0020EEE770B55F
:10134000044625011420FFF7F1FB29460220FFF790
:10135000A6FB70BD70B50546434800884FF6807106
:1013600000EA01041420FFF7E1FB052000F0D8F9A2
:10137000092D3CD2DFE805F0050B11171D23292F9D
:10138000350044F001010020FFF789FB34E044F010
:1013900009010020FFF783FB2EE044F00A01002042
:1013A000FFF77DFB28E044F061010020FFF777FBA9
:1013B00022E044F02A010020FFF771FB1CE044F01A
:1013C0001C010020FFF76BFB16E044F02601002013
:1013D000FFF765FB10E044F03E010020FFF75FFBE4
:1013E0000AE044F05F010020FFF759FB04E005200C
:1013F00000F096F9012070BD00BF052000F090F9C3
:101400000020F8E710B51420FFF790FB642000F0EF
:1014100064F91620FFF78AFB642000F05EF91820BB
:10142000FFF784FB642000F058F910BD10B51620BA
:10143000FFF77CFB052000F050F90C210B48FFF76B
:1014400069FE052000F049F91A20FFF76FFB00BF85
:101450000221074800F08FFC0028F9D110BD0000E0
:10146000524900087249000892490008980000207B
:10147000001001400EB50121084600F0A1FE062132
:10148000012000F0FBFC4020019000208DF80800B6
:1014900008208DF8090001208DF80A0001A800F04D
:1014A0006BFA17208DF8000000208DF801008DF8F0
:1014B000020001208DF80300684600F002FB1620B0
:1014C000FFF734FB022000F008F91820FFF72EFB8D
:1014D000022000F002F90321022000F0CFFC0820D6
:1014E000019000208DF8080008208DF809000120E7
:1014F0008DF80A0001A800F03FFA09208DF80000DD
:1015000003208DF8010000208DF8020001208DF8E5
:101510000300684600F0D5FA0EBD10B50121504811
:1015200001F0C0FD4F480078401C4E490870084645
:10153000007805281FDB0A20087002F0ADF9B0B171
:1015400049A000F0E8F900204B4908604B49C1F878
:1015500084014B49086001F10401086001F10401B4
:10156000086001F10401086001F1040108604FF016
:10157000110002F0C9F943480088401C4149088025
:1015800008460088F02804D1002008801A2002F0C4
:10159000BBF900203C4908803C480088401C3B497E
:1015A000088008460088B0F5616F17DD1420FFF74A
:1015B000BDFA012000F091F81620FFF7B7FA0120DC
:1015C00000F08BF81820FFF7B1FA012000F085F841
:1015D00000202E4908802EA002F0F6FD10BD10B5A7
:1015E00001212E4801F05EFD27480088401C264955
:1015F000088010BD10B52A48006840F04000284916
:1016000008600C212748FFF7A3FDFFF7FBFE002031
:101610001E49088002F03DFBB0B1224802F034FBC5
:10162000022804D0042806D005280CD107E00720A2
:1016300002F06AF907E0092002F066F903E00B20E6
:1016400002F062F900BF00BF10BD1548006840F00D
:10165000080013490860704772B6704762B6704759
:1016600000040040180000205461736B2051756520
:101670006E652046756C6C0080812242008022429B
:10168000888122421A0000207800002016000020E5
:1016900072657374617274200D0A000000080040C6
:1016A00014040140A400002010B56FF0040000F005
:1016B00053FA2D4800682D49B0FBF1F02C49087011
:1016C0000846007800EB4001C1EBC0104FF6FF71F7
:1016D00001EAC0002749088010BD0146244A12785B
:1016E0004A434FF0E0235A6100229A611A46126978
:1016F00042F001021A6100BF4FF0E022106910F0C1
:10170000010F02D010F4803FF6D04FF0E0221269B2
:1017100022F001024FF0E0231A6100229A61704723
:101720000146144A12884A434FF0E0235A610022CE
:101730009A611A46126942F001021A6100BF4FF025
:10174000E022106910F0010F02D010F4803FF6D0B3
:101750004FF0E022126922F001024FF0E0231A61FB
:1017600000229A61704700000000002000127A00F9
:101770001E0000202000002010B54FF4806000F013
:101780009BF910BD10B5FFF78FFFFFF7F5FF00F0D5
:1017900026F8FEF71BFEFEF7CBFEFEF757FF0548C7
:1017A000FFF7DAFBFFF766FE02F0A0F802F0C8FBD5
:1017B00010BD00002100F143014600BF704770B525
:1017C00004460D4600BF40215A4801F019FE00288A
:1017D000F9D0E1B2574801F0A5FD204670BD00B533
:1017E00085B00121880300F0EBFC4FF4E13001905B
:1017F0000020ADF80800ADF80A00ADF80C00ADF817
:1018000010000C20ADF80E0001A94A4801F091FC2F
:101810000121484801F019FD0121042000F0D0FC0D
:101820004FF40070ADF8000003208DF8020018207E
:101830008DF803006946404800F00CFA4FF48060D0
:10184000ADF8000003208DF8020004208DF803009D
:101850006946394800F0FEF905B000BD10B50446F0
:101860002146344801F05EFD00BF4021314801F0BF
:10187000C7FD0028F9D010BD70B505460E460024FE
:1018800003E0285DFFF7EAFF641CB442F9DB70BD9A
:1018900010B540F22551274801F0C8FD002833D08B
:1018A0002021244801F0B9FD224801F03FFDC4B2D7
:1018B0006F2C03D101202149087025E000201F4929
:1018C0000870AA2C01D11E4908701D4801780078C3
:1018D000401C1B4A10701B484454BB2C14D10020E0
:1018E00011460870174840781749088015488078D5
:1018F00016490870AA20FFF7B1FF1548006880F06C
:1019000001001449C1F8940110BD10B5094801F057
:101910000DFDC0B210BD70B5044600257D20FFF757
:101920009DFF7F20FFF79AFF21460BA002F04CFCA1
:1019300070BD000000380140000801409000002008
:1019400025000020260000208000002082000020CA
:10195000948122420080224225730A0000204449DB
:101960000860091D0860091D0860091D08604148DC
:101970003F4914310860704700213D498279002AAF
:101980003AD00A46126803689A430B461A600A1D49
:10199000126803689A430B1D1A60027911440A68A1
:1019A00003681A430A60324A0832126803689A438D
:1019B0002F4B08331A601A1D126803689A432C4B88
:1019C0000C331A604279102A0ED11A1F126803686C
:1019D0001A43274B08331A601A1D126803681A430A
:1019E000234B0C331A600DE02149427911440A68F7
:1019F00003681A430A6005E0027911440A68036823
:101A00009A430A6070470021016001710C21417105
:101A10000021817170471649103109680143144A49
:101A200010321160704701460020114A14321268CA
:101A30000A4201D0012000E0002070470C49143117
:101A400008607047014600200022094B1B6803EA2A
:101A50000102074B14331B680B4202D00AB101206C
:101A600000E0002070470249143108607047000010
:101A700000040140FFFF0F00094880470948004764
:101A8000FEE7FEE7FEE7FEE7FEE7FEE7FEE7FEE72E
:101A9000FEE7FEE704480549054A064B704700008B
:101AA000CD02000831010008C00C0020C012002047
:101AB000C00E0020C00E002031490143314A1160A0
:101AC000704770B5002100230F22C4780CB32D4C51
:101AD000246804F4E064C4F5E064210AC1F104035D
:101AE000CA40447804FA03F1847814402143090180
:101AF000254C0678A155047804F01F050124AC405C
:101B000005786D114FF0E02606EB8505C5F800411C
:101B100009E0047804F01F050124AC401B4D067851
:101B2000761145F8264070BD194A0A400243154B0C
:101B30001B1F1A60704739B1124A121D1268024306
:101B4000104B1B1D1A6006E00E4A121D12688243DC
:101B50000C4B1B1D1A607047042808D14FF0E02180
:101B6000096941F004014FF0E022116107E04FF0F4
:101B7000E021096921F004014FF0E0221161704772
:101B80000000FA050CED00E000E400E080E100E078
:101B900080FFFF1F10B50446CA48844208D10121C6
:101BA000042000F027FB0021042000F023FB46E086
:101BB000C548844208D10121082000F01BFB002108
:101BC000082000F017FB3AE0C048844208D1012108
:101BD000102000F00FFB0021102000F00BFB2EE086
:101BE000BB48844208D10121202000F003FB0021E2
:101BF000202000F0FFFA22E0B648844208D10121FB
:101C0000402000F0F7FA0021402000F0F3FA16E03F
:101C1000B148844208D10121802000F0EBFA002174
:101C2000802000F0E7FA0AE0AC48844207D10121A5
:101C3000801500F0DFFA0021A01500F0DBFA10BDDE
:101C400010B50121084600F0D5FA0021012000F06E
:101C5000D1FA10BD2DE9F0410246002500260020F2
:101C600000230024002791F803C00CF00F0591F821
:101C700003C01CF0100F03D091F802C04CEA050518
:101C800091F800C0BCF1000F31D0146800202BE0A7
:101C90004FF0010C0CFA00F3B1F800C00CEA030697
:101CA0009E4220D183004FF00F0C0CFA03F7BC4387
:101CB00005FA03FC4CEA040491F803C0BCF1280FB8
:101CC00006D14FF0010C0CFA00FCC2F814C00AE077
:101CD00091F803C0BCF1480F05D14FF0010C0CFA8C
:101CE00000FCC2F810C0401C0828D1D31460B1F821
:101CF00000C0BCF1FF0F34DD546800202EE000F17D
:101D0000080C4FF0010808FA0CF3B1F800C00CEA17
:101D100003069E4221D183004FF00F0C0CFA03F70B
:101D2000BC4305FA03FC4CEA040491F803C0BCF17F
:101D3000280F05D100F1080C08FA0CF8C2F814803D
:101D400091F803C0BCF1480F07D100F1080C4FF027
:101D5000010808FA0CF8C2F81080401C0828CED3FD
:101D60005460BDE8F0814FF6FF710180022181705F
:101D70000421C17070470246002093680B4201D0D5
:101D8000012000E0002070470146886880B270475B
:101D900002460020D3680B4201D0012000E0002061
:101DA00070470146C86880B2704701617047416161
:101DB00070470AB1016100E041617047C16070473E
:101DC0004FF480320A438261816182618269826953
:101DD000704702460020424B18684FF68073184047
:101DE00040EA021008433E4B186070473D49C86105
:101DF0007047F0B50A46002300240021002500F0BA
:101E00000046B6F1004F02D1354EF16901E0344E83
:101E10007168C0F3034583B200F44016B6F5401F65
:101E200008D121F070612E4E766826F070662C4F36
:101E30007E6012E000F48016B6F5801F06D10326FE
:101E400006FA05F4A14341F0706106E0460D360143
:101E500003FA06F6B14341F0706122B1460D360136
:101E600003FA06F6314300F00046B6F1004F02D106
:101E70001B4EF16101E01A4E7160F0BD30B50022D9
:101E80008B071C0F0F2303FA04F2154B08338C1039
:101E900053F824309343124C08348D1044F8253005
:101EA00023468C1053F824308C07240F00FA04F4D6
:101EB00023430B4C08348D1044F8253030BD0A49BB
:101EC0000860704700080140000C0140001001400C
:101ED0000014014000180140001C01400020014096
:101EE0000000014000002042DC002042DD48006884
:101EF00040F00100DB49086008464068DA490840C4
:101F0000D849486008460068D8490840D549086063
:101F10000846006820F4802008600846406820F4E5
:101F2000FE0048604FF41F0088607047CD49096883
:101F300021F48031CB4A11601146096821F48021D7
:101F40001160B0F5803F03D0B0F5802F0ED106E0D0
:101F5000C449096841F48031C24A116007E0C149AF
:101F6000096841F4A021BF4A116000E000BF00BF32
:101F7000704710B501460022002300204A11012AB3
:101F800002D1B84C236806E0022A02D1B54C236A7C
:101F900001E0B44C636A01F01F02012494401C422A
:101FA00001D0012000E0002010BD38B500200090D5
:101FB0000024002500BF3120FFF7DBFF0546009815
:101FC000401C00900098B0F5A06F01D0002DF2D019
:101FD0003120FFF7CEFF08B1012400E000242046A5
:101FE00038BD014600209F4A106820F0F80040EA02
:101FF000C100106070479E4908607047024600208B
:10200000984B586820F47C1042EA01031843954B22
:102010005860704796490866704701460020914A0B
:10202000506820F003000843506070478D484068B6
:1020300000F00C007047014600208A4A506820F0EA
:10204000F00008435060704701460020854A506800
:1020500020F4E06008435060704701460020814A48
:10206000506820F4605040EAC1005060704729B1C8
:102070007C4A527A02437B4B5A7204E0794A527A84
:102080008243784B5A7270477A490860704701461C
:102090000020744A506820F4404008435060704764
:1020A0000021754A11706F4A82F82010012802D071
:1020B000042808D103E001216F4A117004E00521D2
:1020C0006D4A117000E000BF00BF70476B490860A7
:1020D00070476449096A0143624A1162704767495F
:1020E00044390860704730B50021002200240023E5
:1020F0005C4D6D6805F00C0121B1042905D008295B
:1021000023D105E05E4D056022E05D4D05601FE0D6
:10211000544D6D6805F47012524D6D6805F48034AD
:10212000022505EB92421CB9564D554305600BE064
:102130004C4D6D6815F4003F03D0524D554305607A
:1021400002E04F4D5543056002E04D4D056000BF74
:1021500000BF444D6D6805F0F00109094A4D6B5C04
:102160000568DD4045603F4D6D6805F4E061090A92
:10217000454D6B5C4568DD4085603A4D6D6805F402
:102180006051C90A404D6B5C4568DD40C560354D06
:102190006D6805F44041890B3C4D6B5CC568B5FB2F
:1021A000F3F5056130BD29B12E4A526902432D4B2A
:1021B0005A6104E02B4A526982432A4B5A617047A4
:1021C00029B1284A92690243264B9A6104E0254AC4
:1021D00092698243234B9A61704729B1214AD2699F
:1021E0000243204BDA6104E01E4AD26982431D4B50
:1021F000DA61704729B11B4AD2680243194BDA6091
:1022000004E0184AD2688243164BDA60704729B15D
:10221000144A12690243134B1A6104E0114A12690D
:102220008243104B1A617047144940390860704767
:102230000F49C86470470B49C87170470948406A24
:1022400040F0807007494862704701460020054A07
:1022500092680A4201D0012000E000207047014945
:1022600088727047001002400000FFF8FFFFF6FE82
:1022700000004242D8004242201002408004424204
:1022800000127A0000093D003000002040000020CC
:1022900010B50446FE48844208D10121C014FFF75E
:1022A000A9FF0021E014FFF7A5FFC4E0B4F1804FBF
:1022B00008D101210846FFF7AAFF00210120FFF7FE
:1022C000A6FFB8E0F348844208D101210220FFF7BD
:1022D0009EFF00210220FFF79AFFACE0EE48844207
:1022E00008D101210420FFF792FF00210420FFF70D
:1022F0008EFFA0E0E948844208D101210820FFF7C1
:1023000086FF00210820FFF782FF94E0E448844222
:1023100008D101211020FFF77AFF00211020FFF7DC
:1023200076FF88E0DF48844208D101212020FFF7B2
:102330006EFF00212020FFF76AFF7CE0DA4884422C
:1023400008D101214014FFF755FF00216014FFF769
:1023500051FF70E0D548844209D10121C804FFF73C
:1023600049FF00214FF40020FFF744FF63E0D0480D
:10237000844209D101210805FFF73CFF00214FF4F9
:102380008010FFF737FF56E0CA48844209D1012187
:102390004805FFF72FFF00214FF40010FFF72AFF39
:1023A00049E0C548844208D101214020FFF72FFFB2
:1023B00000214020FFF72BFF3DE0C048844208D1B8
:1023C00001218020FFF723FF00218020FFF71FFF5E
:1023D00031E0BB48844208D101218015FFF717FF87
:1023E0000021A015FFF713FF25E0B648844209D16C
:1023F00001210804FFF7FEFE00214FF48030FFF7B3
:10240000F9FE18E0B048844209D101214804FFF7E1
:10241000F1FE00214FF40030FFF7ECFE0BE0AB487B
:10242000844208D101218804FFF7E4FE00214FF423
:102430008020FFF7DFFE10BD00220288944B9842F7
:102440000ED0994B98420BD0B0F1804F08D0914BF1
:10245000984205D0904B984202D0904B984204D1BC
:102460004FF68F731A404B881A438D4B984207D012
:102470008C4B984204D04FF6FF431A40CB881A4346
:1024800002808B8883850B880385814B98420BD013
:10249000854B984208D08B4B984205D08A4B984286
:1024A00002D08A4B984201D10B7A038601238382A2
:1024B000704770B5002400220023058C4FF6FE768D
:1024C00035400584028C8388048B4FF68F752C4031
:1024D000B51E2C400D882C43751E2A400D892A43B9
:1024E0004D882A436A4DA8420BD06F4DA84208D0B0
:1024F000744DA84205D0744DA84202D0734DA84235
:1025000013D14FF6F7752A404D892A434FF6FB75D4
:102510002A408D882A434FF6FF652B404FF6FF5522
:102520002B408D892B43CD892B4383800483CD8819
:102530008586028470BD70B5002400220023058CBE
:102540004FF6EF7635400584028C8388048B48F67D
:10255000FF752C404FF6FF452C400D884FF6FF7657
:1025600006EA05252C434FF6DF752A400D8906EA59
:1025700005152A434D8806EA05152A43444DA8420D
:1025800002D0494DA8421DD14FF67F752A404D8992
:102590004FF6FF7606EA05152A434FF6BF752A4027
:1025A0008D8806EA05152A434FF6FF352B404FF27A
:1025B000FF752B408D8906EA85052B43CD8906EAF8
:1025C00085052B4383800483CD880587028470BDF5
:1025D00070B5002400220023058C4FF6FF663540BD
:1025E0000584028C8388848B4FF68F752C404FF6C0
:1025F000FC752C400D882C434FF6FF552A400D8961
:102600004FF6FF7606EA05252A434D8806EA05259A
:102610002A431F4DA84202D0234DA8421DD14FF29C
:10262000FF752A404D894FF6FF7606EA05252A43B5
:102630004FF6FF352A408D8806EA05252A434EF6D7
:10264000FF752B404DF6FF752B408D8906EA051569
:102650002B43CD8906EA05152B4383808483CD88DF
:102660008587028470BD70B5002200230024058C8C
:102670004EF6FF7635400584038C8488828B48F6BD
:10268000FF752A404FF6FF452A400D8820E00000E4
:10269000002C01400004004000080040000C0040F5
:1026A000001000400014004000340140004C014084
:1026B000005001400054014000180040001C004040
:1026C000002000400040014000440140004801401B
:1026D0004FF6FF7606EA05252A434DF6FF752B4097
:1026E0000D8906EA05352B434D8806EA05352B434F
:1026F000FA4DA84202D0FA4DA84208D14BF6FF7518
:102700002C408D894FF6FF7606EA85152C43848090
:102710008283CD88A0F84050038470BD828B4FF235
:10272000FF331A408283828B4FF6FF7303EA012343
:102730001A4382837047F0B50C46154600220021EB
:102740000026078C4EF6FF7C07EA0C070784828B75
:10275000018C4FF6FF7707EA043640F6FF473A4010
:102760004FF6FF7707EA05273A434FF6FF7707EA68
:1027700003373A43D94FB8420ED0D94FB8420BD0A5
:10278000B0F1804F08D0D74FB84205D0D64FB842ED
:1027900002D0D64FB84206D14DF6FF77394046F405
:1027A0008057394305E047F6FF57394044F48057D6
:1027B000394382830184F0BD828B4FF6F3731A4054
:1027C0008283828B0A4382837047F0B50C4615469C
:1027D000002200210026078C4FF6FF6C07EA0C0749
:1027E0000784828B018C4FF6FF7707EA04264FF6A9
:1027F0000C773A404FF6FF7707EA03172F433A4327
:10280000B64FB8420ED0B64FB8420BD0B0F1804FA1
:1028100008D0B44FB84205D0B34FB84202D0B34F3E
:10282000B84206D14FF6FF57394046F48077394316
:1028300005E04FF2FF57394044F4807739438283F3
:102840000184F0BD028B4FF2FF331A400283028BEA
:102850004FF6FF7303EA01231A4302837047F0B572
:102860000C461546002200210026078C4FF6EF7C0F
:1028700007EA0C070784028B018C4FF6FF7707EA03
:10288000041640F6FF473A404FF6FF7707EA033752
:102890003A434FF6FF7707EA05273A438F4FB8428E
:1028A0000ED08F4FB8420BD0B0F1804F08D08D4F73
:1028B000B84205D08C4FB84202D08C4FB84206D1F6
:1028C0004FF6DF77394046F01007394305E04FF601
:1028D0005F77394044F01007394302830184F0BD2B
:1028E000028B4FF6F3731A400283028B0A43028372
:1028F0007047F0B50C46154600220021068C4FF6B5
:10290000FE773E400684028B018C4FF60C763240F7
:102910007E1C06EA03162E433243704EB0420ED0A0
:102920006F4EB0420BD0B0F1804F08D06D4EB04228
:1029300005D06D4EB04202D06C4EB04206D14FF67B
:10294000FD76314044F00106314305E04FF6F5765F
:10295000314044F00106314302830184F0BD70B57B
:1029600005460C465D4885420ED05D4885420BD039
:10297000B5F1804F08D05B48854205D05A48854262
:1029800002D05A48854200D100E000BF208850B9EB
:102990002389A28861882846FFF7ABFFE188284693
:1029A000FFF79EFF25E0208804280AD12389A2880A
:1029B00061882846FFF753FFE1882846FFF742FF6A
:1029C00017E0208808280AD12389A2886188284630
:1029D000FFF7FBFEE1882846FFF7EEFE09E02389BA
:1029E000A28861882846FFF7A6FEE1882846FFF7FF
:1029F00095FE70BD2DE9F04105460C4600260127E5
:102A0000608808B9022600E00026A088012801D1CC
:102A1000022700E001272088A0B92389A2886188C5
:102A20002846FFF766FFE1882846FFF759FF23890C
:102A30003A4631462846FFF712FFE1882846FFF75D
:102A400001FF13E02389A28861882846FFF707FF6A
:102A5000E1882846FFF7F6FE23893A4631462846A4
:102A6000FFF747FFE1882846FFF73AFFBDE8F0810E
:102A70000A884B881A438B881A43CB881A430B89E0
:102A80001A434B891A438B891A43A0F84420704794
:102A90004FF6FF71818000210180C1804180017269
:102AA00070470021018041808180C1800181418186
:102AB0008181C18170470021018041800121818095
:102AC0000021C18001817047002101804180818007
:102AD000C18001814181818170470000002C01404B
:102AE000003401400004004000080040000C004099
:102AF00021B1028842F00102028004E002884FF610
:102B0000FE731A400280704731B1B0F8442042F49D
:102B10000042A0F8442005E0B0F84420C2F30E02C1
:102B2000A0F8442070471AB183890B43838102E0E7
:102B300083898B43838170478182704741EA020316
:102B4000A0F8483070471AB183890B43838102E0B3
:102B500083898B438381704701894FF6F872114056
:102B6000018170470A46002101894FF68F73194091
:102B700011430181704730B504460D462946204671
:102B8000FFF7F0FF208940F00700208130BD2DE9DC
:102B9000F04104460D4616461F46602D06D13B46C1
:102BA000012231462046FFF75AFE05E03B4601224E
:102BB00031462046FFF79DFE29462046FFF7D2FF0B
:102BC000208940F007002081BDE8F08130B50C4637
:102BD00000210189C9B24FF6FF7505EA03251543A7
:102BE00025432943018130BD2DE9F04105460E46BC
:102BF00017469846002443463A4631462846FFF792
:102C0000E5FF2C894FF6F870044044F007044FF6B6
:102C10008F70044044F070042C81BDE8F081F0B561
:102C200004460D4616461F463B4632462946204678
:102C3000FFF7CCFF208940F480402081F0BD018562
:102C4000828270470A46002101884FF68F7319402F
:102C5000114301807047F0B50C4615461E46002111
:102C6000002200230189028B038C4FF6F87739404C
:102C700021434FF6FC473A4040F201173A434FF6E2
:102C8000DD773B404FF6FF7707EA06172F433B43BC
:102C9000018102830384F0BD0A460021018B4FF6B7
:102CA0008F7319401143018370470A460021018B3D
:102CB00048F6FF7319404FF6FF7303EA02231943E6
:102CC000018370470A460021818B4FF68F731940AC
:102CD0001143818370470A460021818B48F6FF73B8
:102CE00019404FF6FF7303EA0223194381837047AB
:102CF00021B1028842F08002028004E002884FF68F
:102D00007F731A400280704721B1828842F004022A
:102D1000828004E082884FF6FB731A4082807047FD
:102D200021B1828842F00802828004E082884FF656
:102D3000F7731A408280704721B1828842F0010205
:102D4000828004E082884FF6FE731A4082807047CA
:102D50000A460021018B4FF6F77319401143018396
:102D600070470A460021018B4FF2FF7319404FF65E
:102D7000FF7303EA02231943018370470A460021C7
:102D8000818B4FF6F77319401143818370470A46D0
:102D90000021818B4FF2FF7319404FF6FF7303EA56
:102DA00002231943818370470A460021018B4FF6A5
:102DB000FB7319401143018370470A460021018BC0
:102DC0004FF6FF3319404FF6FF7303EA022319430E
:102DD000018370470A460021818B4FF6FB7319402F
:102DE0001143818370470A460021818B4FF6FF33E0
:102DF00019404FF6FF7303EA02231943818370479A
:102E00000A460021018B4FF67F731940114301835D
:102E100070470A460021018BC1F30E014FF6FF7384
:102E200003EA02231943018370470A460021818B7C
:102E30004FF67F7319401143818370470A46002182
:102E4000818BC1F30E014FF6FF7303EA022319438E
:102E5000818370470A460021018C4FF6FD731940AB
:102E60001143018470470A460021018C4FF6F77325
:102E700019401143018470470A460021018C4FF626
:102E8000DF7319404FF6FF7303EA021319430184FD
:102E900070470A460021018C4FF67F7319404FF6A8
:102EA000FF7303EA02131943018470470A460021A5
:102EB000018C4FF6FF5319404FF6FF7303EA0223CC
:102EC0001943018470470A460021018C4FF2FF73B9
:102ED00019404FF6FF7303EA022319430184704738
:102EE0000A460021018C4DF6FF7319404FF6FF731F
:102EF00003EA023319430184704730B500230124EB
:102F00008C40A3B2048C9C430484048C02FA01F527
:102F1000ADB22C43048430BD30B5002304248C4072
:102F2000A3B2048C9C430484048C02FA01F5ADB274
:102F30002C43048430BD70B503460020002418469D
:102F4000183001258D40ACB21D8CA5431D8409B1FC
:102F5000082909D100EB6100056825F070050560BE
:102F60000568154305600EE00D1FC5F34E052844A6
:102F7000056825F4E045056005684FF6FF7606EA2A
:102F800002263543056070BD21B1028842F002027D
:102F9000028004E002884FF6FD731A4002807047F9
:102FA00021B1028842F00402028004E002884FF658
:102FB000FB731A400280704721B1828842F0800280
:102FC000828004E082884FF67F731A4082807047C7
:102FD00002884FF6F7731A40028002880A43028083
:102FE000704782884FF68F731A40828082880A4326
:102FF0008280704702894FF6F8731A400281028975
:103000000A430281704702894FF67F731A4002819A
:1030100002890A4302817047818470478185704725
:10302000818670470187704781877047A0F84010FC
:10303000704702884FF6FF431A40028002880A4315
:10304000028070470146888E70470146088F70479E
:103050000146888F70470146B1F84000704701462D
:10306000888C70470146088D704702460020138AFD
:103070000B4201D0012000E000207047CA430282C9
:10308000704730B50246002000230024158A05EA67
:103090000103958905EA010413B10CB1012000E098
:1030A000002030BDCA4302827047000010B50446BC
:1030B000FB48844209D101218803FFF79BF80021D6
:1030C0004FF48040FFF796F832E0F648844209D189
:1030D00001214804FFF79BF800214FF40030FFF76F
:1030E00096F825E0F048844209D101218804FFF7D1
:1030F0008EF800214FF48020FFF789F818E0EB48A4
:10310000844209D10121C804FFF781F800214FF45E
:103110000020FFF77CF80BE0E548844208D101214C
:103120000805FFF774F800214FF48010FFF76FF8DF
:1031300010BD2DE9F04786B005460E460024A24694
:1031400000BFA1460027B08900B100BF2F462C8ADE
:103150004CF6FF700440F08804432C82AC894EF694
:10316000F3100440B088318908437189084304434F
:10317000AC81AC8A4FF6FF400440B0890443AC8276
:1031800001A8FEF7B0FFC648874202D1DDF810A0C3
:1031900001E0DDF80CA0A88910F4004F08D00AEB7C
:1031A000CA0000EB0A1031684900B0FBF1F807E0F3
:1031B0000AEBCA0000EB0A1031688900B0FBF1F895
:1031C0006420B8FBF0F004012009642101FB1089A0
:1031D000A88910F4004F08D0322000EBC900B0FBE2
:1031E000F1F000F00700044308E0322000EB091082
:1031F0006421B0FBF1F000F00F0004432C8106B015
:10320000BDE8F0874FF41651016000218180C18034
:1032100001810C21418100218181704710B5024656
:103220000020108A4FF2FF0318400B884C8823437C
:103230008C882343CC8823431843108210BD00217F
:10324000018041808180C180704721B1828942F430
:103250000052828104E082894DF6FF731A40828118
:103260007047F0B503460024002600250020A1F594
:1032700010676A3F00D100BF1846C1F3421401F045
:103280001F06012707FA06F5012C01D10C3004E0D6
:10329000022C01D1103000E014301AB107682F431E
:1032A000076002E00768AF430760F0BD1AB1838A88
:1032B0000B43838202E0838A8B4383827047028AB6
:1032C0004FF6F0731A400282028A0A430282704764
:1032D00082894FF2FF731A40828182890A43828178
:1032E000704721B1828942F00202828104E0828922
:1032F0004FF6FD731A4082817047028A4FF6DF73E2
:103300001A400282028A0A430282704721B1028A6D
:1033100042F48042028204E0028A4BF6FF731A40B4
:1033200002827047C1F30802828070470146888894
:10333000C0F308007047818941F001018181704725
:10334000028BD2B20283028B42EA012202837047CF
:10335000028B02F47F420283028B0A43028370478E
:1033600021B1828A42F02002828204E0828A4FF6F2
:10337000DF731A408282704721B1828A42F01002C4
:10338000828204E0828A4FF6EF731A40828270478D
:1033900021B1828A42F00802828204E0828A4FF6DA
:1033A000F7731A408282704721B1828942F4004249
:1033B000828103E08289C2F30E028281704721B1CB
:1033C000828A42F40062828204E0828A4FF2FF73B2
:1033D0001A4082827047828A4FF6FB731A408282BB
:1033E000828A0A438282704721B1828A42F00202B5
:1033F000828204E0828A4FF6FD731A40828270470F
:1034000002460020B1F5007F00D100BF13880B42B7
:1034100001D0012000E00020704701F40072B2F5F5
:10342000007F00D100BFCA430280704770B50246DA
:103430000024002300250020A1F510666A3E00D17B
:1034400000BFC1F3421501F01F03012606FA03F382
:10345000012D02D19689334006E0022D02D1168A51
:10346000334001E0968A33400C12012606FA04F438
:103470001688344013B10CB1012000E0002070BD6B
:1034800010B500220023A1F510646A3C00D100BFF2
:103490000A1201249440A3B2DC43048010BD000052
:1034A000003801400044004000480040004C00400B
:1034B0000050004010B50446BE48844208D10121A6
:1034C0008014FEF797FE0021A014FEF793FE16E08D
:1034D000B948844208D101210014FEF798FE00216A
:1034E0002014FEF794FE0AE0B448844207D101217B
:1034F000C013FEF78CFE0021E013FEF788FE10BD1E
:1035000010B50022028802F441520B884C882343F4
:103510008C882343CC8823430C8923434C89234341
:103520008C892343CC8923431A430280838B4FF237
:10353000FF74234083830B8A038210BD2DE9F04F73
:1035400085B005460C464FF0000902274FF00008F1
:103550004FF0010B0026B246A88B4FF24001084005
:10356000A88302202884B5F81C90A068022801D105
:1035700000BF38E0A08810B94FF0010B01E04FF018
:10358000020B8D48854200D100E000BF6846FEF77F
:10359000AAFDDDF800A0E088B0F5007F0AD14FEA6F
:1035A0001A2000EB80004000A168B0FBF1F0401D44
:1035B00086B20BE04FEA4B10BAFBF0F000EB800054
:1035C0004000A168B0FBF1F0401D86B20A20B6FBB6
:1035D000F0F606F00108A6EB0800C0F34F074FF61F
:1035E000FF7000EA0828022F01DBFF2F02DD02270F
:1035F0004FF00008E08840EA080038432884A0889B
:10360000A1890843618808432188084340F4006089
:1036100040EA0909A5F81C9005B0BDE8F08F00212B
:10362000018041808180C180018141818181C1818E
:103630000721018270470021018041808180C18083
:103640000221816000218181704721B1028842F00E
:103650004002028004E002884FF6BF731A400280E5
:10366000704721B1828B42F48062828304E0828BB6
:103670004FF6FF331A408283704730B50024002391
:103680000C110125A540ABB21AB185881D43858078
:1036900002E085889D43858030BD1AB183880B4345
:1036A000838002E083888B438380704781817047E9
:1036B000014688897047A1F57E42FF3A04D002880E
:1036C00042F48072028004E002884FF6FF631A40E1
:1036D0000280704721B1828842F00402828004E0B7
:1036E00082884FF6FB731A408280704702884FF23F
:1036F000FF731A40028002880A43028070470188E3
:1037000041F480510180704721B1028842F4005297
:10371000028004E002884DF6FF731A400280704771
:1037200002460020012901D0108B00E0908A7047EA
:103730000146088A7047B1F5804F04D1028842F4EF
:103740008042028004E002884BF6FF731A40028038
:1037500070470246002013890B4201D0012000E08F
:1037600000207047CA4302817047F0B5024600202E
:1037700000240023002501F00F070126BE40B4B24B
:103780000B1101269E40B3B2968806EA03051689FE
:10379000264202D00DB1012000E00020F0BD10B59E
:1037A000002201F00F040123A3409AB2D343038106
:1037B00010BD00000030014000380040003C0040D7
:1037C000FDF74AFFFDF7DEFFFDF748FF002240F25C
:1037D00025510C48FFF745FD4FF6FF700A498880D8
:1037E0000120087000204870FE20C871FDF736FFE8
:1037F000012240F225510348FFF733FD00BF00F0DE
:10380000B7F8FCE700380140B0000020072030493D
:1038100008700120087100204871FF208870C8706E
:103820000846407820F03F00401C48700846407829
:1038300020F04000403048702648C0798871264802
:1038400001782348407861F3C71021494870084641
:103850000078224908701E4840788006000E1C49F6
:103860004978C1F3801140EA41001949497840EA9A
:10387000D1101A4948701648807888701448C0786A
:10388000C870134800790871114840794871104890
:10389000807988710120704710B5FFF7B7FF0420C9
:1038A00000F032F810BD10B501200D490860FDF799
:1038B000BDFD0C48D0F8840180F001000A49086081
:1038C000FDF7A0FD00200749C1F8A40110BD0000CC
:1038D00044000020B00000207A0000209800002062
:1038E000A48122420080224284812242002003E0FF
:1038F0000021384A1154401C0528F9DB0021364AC2
:103900001160364A1160704701463248334A1268E6
:10391000805C78B92F48314A126881542F4800687A
:10392000401C0522B0FBF2F302FB13002B4A10608F
:10393000002070470120FCE72648274A1268805C77
:10394000A0B12448244A1268815C0020214A224BFD
:103950001B68D05420480068401C0522B0FBF2F3DD
:1039600002FB13001C4A1060084670470220FCE767
:1039700010B5FFF7E1FF0446112C1CD008DC042C25
:103980000DD0072C0ED0092C0FD00B2C1FD10FE01F
:10399000122C13D0162C14D01A2C18D114E0FFF7C7
:1039A00082FF14E000F08CF811E000F0E3F80EE084
:1039B00000F027FA0BE000F03EFB08E000F04DF9C4
:1039C00005E000F0B8FB02E000F074FA00BF00BFB1
:1039D000204610BD540000205C0000206000002044
:1039E00030B50824A24D2C702C46647824F03F0496
:1039F000E41C6C702C46647824F0400440346C70F5
:103A000001290BD150B92C46647824F0800480340D
:103A10006C700124AC712C46E2711DE0012911D1BA
:103A200001280FD1924C647824F080048034904DAA
:103A30006C700124AC712C46E271647824F040046F
:103A40006C7009E08A4C647824F08004884D6C70B6
:103A50000124AC710024EC71864C2478844D2C71C7
:103A600000246C716B802C462478834D2C70804C24
:103A70006478A406240E7E4D6D78C5F3801544EA63
:103A800045047B4D6D7844EAD5147B4D6C70784CC1
:103A900064882412AC70764CA478EC70744C247951
:103AA0002C71734C64796C71714CA479AC71704C4D
:103AB000E479EC7100242C726C72AC72EC7230BD43
:103AC00070B50024002500266C4840796B490979BF
:103AD00040EA01206A49086000BF22E004EB84014B
:103AE00064480C3000EB4100408865490968884211
:103AF00015D1012501266248224631460368284631
:103B0000FFF76EFF002104EB84025A480C3000EBF3
:103B10004200C180FDF78AFCFDF774FC70BD601C9B
:103B2000C4B25448807A401CA042D7DC5148807A05
:103B3000FE281DDC01264F48807A401C4D498872C2
:103B40004F48008881B24B48807A00EB8002494898
:103B50000C3000EB420041804648827A48483146AA
:103B600003682846FFF73CFFFDF760FCFDF74AFCC1
:103B700000BFD3E7414801793E48807A00EB8002DC
:103B80003C480C3000F812103C4841793948807AA2
:103B900000EB800237480C3000EB4200417038489F
:103BA000008881B23348807A00EB800231480C30C3
:103BB00000EB4200418000212E48807A00EB800219
:103BC0002C480C3000EB4200C1802A48807AC0F1BA
:103BD000FE002849C871704708222A4B1A701A46FD
:103BE000527822F03F02D21D5A701A46527822F0C3
:103BF00040025A7001229A701A46D0701D4A1278FB
:103C00001A7100225A711A46D18012781A4B1A7012
:103C10001C4A52789206120E1A4B5B78C3F380133B
:103C200042EA4302144B5A70164A92789A70154A27
:103C3000D278DA70134A12791A71124A52795A718B
:103C4000104AD28812129A710E4A9279DA710022C1
:103C50001A725A729A72DA72704710B54FF6FF7183
:103C6000FF20FFF7B9FFFDF7E1FBFDF7CBFB10BD30
:103C700068000020B000002098000020A400002070
:103C800064000020700000200146491C087880086C
:103C900070470F4880780F490978884205D10C4851
:103CA000C0780C494978884207D009488078FF28B5
:103CB00005D10748C078FF2801D1012070470020B6
:103CC000FCE70146002901DD084670474842FCE751
:103CD000A4000020B000002030B508248A4D2C70CC
:103CE0002C46647824F03F04A41D6C702C46647844
:103CF00024F040046C702C46647862F3C7146C7036
:103D00002C46A070E170814C24782C717F4C647833
:103D10006C717F4C2488EC802C4624787D4D2C706F
:103D2000794C6478A406240E774D6D78C5F3801520
:103D300044EA4504744D6D7844EAD514754D6C70B1
:103D4000714CA478AC70704CE478EC706E4C2479B3
:103D50002C716D4C64796C716B4CE4882412AC71DD
:103D6000694CA479EC71684C247A2C7200246C7232
:103D7000AC72EC72644D2C7230BD002000217E22AA
:103D8000654B1A7000225A7013229A701022DA7052
:103D900001221A7100225A7113229A71A222DA7139
:103DA00000221A7240225A72B5229A729E22DA7248
:103DB00005221A73FF225A73FE229A730022DA73C5
:103DC0001A74564A128812125A74544A12789A7403
:103DD000534A12881212DA74514A12781A75514AEB
:103DE00012785A75032005E04B4A125C0A44D1B29E
:103DF000421CD0B21628F7DBC1F1FF02464B9A7580
:103E000070472DE9F047002500260027A846A9465F
:103E100000244548006880F001004449C1F8880149
:103E2000434880794249497940EA01203B4908806A
:103E30003F48007A3E49C97940EA01203849088064
:103E40004FF001034FF000024FF0FF010846FFF76B
:103E500043FF00BF00BF00BF00BF00BF00BF00BFE7
:103E600000BF00BF00BFFDF7E1FAFDF7CBFA00206D
:103E700030490860044604E0002027490855601CCA
:103E8000C4B20F2CF8DB7E20234908702348008839
:103E90000012C87321480078087421480088001275
:103EA00048741F480078887415211B48FDF7E4FC0E
:103EB000BDE8F08738B50024012420E004EB84013C
:103EC00012480C3000EB4100007A70B904EB840119
:103ED0000E480C3000EB41004088ADF80000FD209A
:103EE0008DF80200684600F054F8002104EB8402CB
:103EF00006480C3000EB42000172601CC4B203485B
:103F0000807AA042DADA38BDA80A0020B00000208A
:103F10007800002098000020B20A002084000020D1
:103F2000860000201C00002088812242008022425E
:103F3000A4000020A48122420021018081707047EA
:103F400000B5002205E0874901EB8200FFF7F4FF8E
:103F5000521C642AF7DB00208349087083490870EB
:103F600000BD0146088818B9887808B90120704753
:103F70000020FCE710B503460C4600221A4605E077
:103F8000784901EB8200FFF7D7FF521CA242F7DB12
:103F900010BD10B504467349744A127801EB8200D3
:103FA000FFF7DFFFB8B16F487049097800EB810077
:103FB000216801606D480078401C642190FBF1F29B
:103FC00001FB12006949087069480078401C684983
:103FD0000870002010BD7D20FDF740FC7F20FDF71C
:103FE0003DFC64A000F0F0F864210020FFF7C2FF60
:103FF0000120EFE708B55B495B4A127801EB8200CC
:10400000FFF7AFFF90B957485749097800EB810097
:104010000068009054480078401C642190FBF1F245
:1040200001FB120050490870009808BD6846FFF770
:1040300083FF0098F9E7F8B500244B4805784B4812
:1040400006784B48007800B9F8BD0020FDF706FC63
:104050007D20FDF703FC7E20FDF700FC434800783F
:10406000FDF7FCFBFFF7C6FF0090002046490880E3
:104070001DE0BDF800100812FDF7F0FBBDF80010C0
:10408000C8B2FDF7EBFB9DF80200FDF7E7FBFFF779
:10409000B1FF00903C480088401C3B49088008461E
:1040A0000088642803DD39A0FDF735FCCCE76846BD
:1040B000FFF757FF0028DCD00120FDF731FB38481F
:1040C000007801282AD10EE02046611C8CB2962887
:1040D00009DD0120FDF724FB0020234908700120A1
:1040E0003049087003E0304800780028ECD000BF69
:1040F00000202D4908702B480078012806D10020A7
:104100002849087029A0FDF706FC9DE7FDF7FDFB97
:104110006F2803D000201449087095E731462846DF
:10412000FFF728FF00201049087010490870104957
:10413000087000BF88E710B57D20FDF78FFB1F4991
:1041400009880812FDF78AFB1C490878FDF786FBF1
:104150001B4909880812FDF781FB19490878FDF70A
:104160007DFB10BDCA0A00209200002093000020B1
:104170008C00002055706C6F6164205175656E6510
:104180002046756C6C0A00008E000020506F705F36
:10419000436F756E74204F7665726C6F61640000BA
:1041A0007A000020910000209000002075706C6F54
:1041B0006164206E6F2061636B0000007C00002052
:1041C0007E000020704700000FB4044910B503AA18
:1041D000029800F07DF810BC5DF814FB2C00002064
:1041E0002DE9F0410E460446002020622046E16899
:1041F000884730B3252805D0D4E901219047206AAB
:10420000401CF2E7E168204600278847050018D0E7
:10421000A5F14100192802D820354FF40067324635
:10422000294620462760FBF7BDFF40B1012804D096
:10423000F61D26F007060836D8E7361DD6E72846CD
:10424000DAE7206ABDE8F08170B50C460546012A20
:1042500005D02878800600D5EA69002302E0012312
:1042600005E05B1C934202D2E05C0028F9D1A8690A
:10427000E618C01AA861286A184428622846AFF3D5
:10428000008004E0D5E9012114F8010B9047B44205
:10429000F8D32846AFF3008070BD70477047704771
:1042A000704710B5436913B1AFF3008001E0FFF729
:1042B000CBFF012010BD127800F124010A7000220A
:1042C0004A700122EDE711684FF0FF32E9E7000084
:1042D000074B70B50D467B4400F011F804462846A4
:1042E00000F020F810B14FF0FF3070BD204670BDD7
:1042F000E5D4FFFF01694A1C02610878704700B5E8
:104300008FB0CDE901310021059105497944CDE90E
:10431000031011466846FFF763FF0FB000BD0000B1
:10432000E5FFFFFF007B00F080007047754600F05E
:1043300029F8AE4605006946534620F00700854639
:1043400018B020B5FDF7A6FBBDE820404FF00006F1
:104350004FF000074FF000084FF0000B21F007016D
:10436000AC46ACE8C009ACE8C009ACE8C009ACE8B0
:10437000C0098D4670470446AFF300802046FBF726
:1043800023FF0000004870475C0C002090EA010FFA
:1043900048BF81F0004100F16E82421A3CBF801A92
:1043A00089184FEAD0524FF07F4C1CEA410FA2EB24
:1043B000D15318BF9CEA026F00F03B804FF0004CD5
:1043C0004CEA00204CEA012121FA03FC10EB0C0C12
:1043D0001ED202F1FF325FEA1C2040EBC25038BF10
:1043E00070471CF07F0F4FEA400C18BFBCF17F4FA5
:1043F00038BF7047C3F12003994008BF20F0010087
:10440000BCF17F4F38BF7047A0F1C04000F01DBA2B
:104410004FEA3C00000A40EBC25028BF1CF0FF0FDF
:104420004FEA400CE6D018BFBCF17F4F38BF704751
:10443000EAE79CEA026F05D010EA5C0F08BF00F0C3
:104440000040704710B500F0BAF900BF64FBBE3EF3
:10445000401058BFC0F14040491058BFC1F1404121
:104460008142EFF3008070474FF47F0C1CEAD012BA
:104470001EBF1CEAD11392EA0C0F93EA0C0F00F056
:10448000858090EA010F48BF42F4807240F4000C2E
:1044900041F400002CF07F4120F07F4000B58142C4
:1044A000A2EB03020FF2081CACEB504EC0F100006F
:1044B0009EF800E04FEA4E0E00FB0EFC38BF4900AC
:1044C0004FEA2C1C02F5FA020CFB0EF34FEACE1E4B
:1044D0004FEA112C4FEAC1210EEB635E42EB224200
:1044E0000EFB0CFC4FEA1C5300FB03114FEA112C8E
:1044F0004FEA01310EFB0CFC4FEADC4C00FB0C11C7
:10450000C14228BF09184CEB03335DF804EB10EBF4
:10451000410143EBC250B2F57C0F38BF704729D53B
:1045200012F0F00F1CBF00F1C04000F000407047D7
:10453000008182838485868788898B8C8D8E8F917C
:104540009293959697999A9C9D9FA0A2A3A5A7A8A0
:10455000AAACAEB0B2B3B5B7B9BCBEC0C2C5C7C9CC
:10456000CCCED1D4D7D9DCDFE2E6E9ECF0F3F7FA30
:10457000FE0000004FEA400C0CF1807CBCF17E4F45
:1045800028BF7047B0F1C04000F05FB990EA010F5A
:104590000CEAD11348BF42F48072624538BF6345CC
:1045A00007D213F47F0F16D080EA010000F000401C
:1045B000704710B500F003F9097EFC3E00F005B825
:1045C00080EA010000F00040704780EA010000F03E
:1045D000004000F03AB912F47F0F04BF0248704760
:1045E00080EA010000F031B90000C07FC10DD1F1B7
:1045F0009E0206DB4FEA002343F0004323FA02F059
:104600007047004207D54FEA4001B1F1FE4F02D298
:104610004FF00000704710B500F0D1F849922480A7
:10462000002070476FEA200070470000B0FA80F366
:1046300010FA03F2C3F19D030AD0D90501EB122051
:10464000530638BF704700F1010008BF20F0010099
:104650007047000050EA010C00F113801CF5000FB8
:1046600058BFBCF5000F01D48842704707D710F53A
:10467000000F58BF11F5000F15D4884270478942CA
:1046800070471CF5000F04D5BCF5000FF7D581422B
:1046900070474FF0807C1CEB400F38BF1CEB410F84
:1046A00001D28142704710B500F089F89224490088
:1046B0004FF000504FF08051FFF7CABE4FF47F0C0F
:1046C0001CEAD0121EBF1CEAD11392EA0C0F93EA27
:1046D0000C0F00F0478090EA010F48BF42F480724F
:1046E0004FF0004C4CEA00204CEA012102EB03029F
:1046F000A0FB0113A2F50002002918BF43F001033B
:104700005B0028BF4FEA330342EB22425FEA132CDF
:104710004CEBC2502EBFBCEB436FB2F57C0F704721
:104720004FEA036CBCF1004F08BF20F00100B2F566
:104730007C0F38BF70470BD582F0FF0212F5803F27
:10474000C8BF704700F1C040D8BF00F000407047BC
:1047500000F5000C5FEA4C0C48BF7047B0F1C04058
:1047600000F073B890EA010F0CEAD11348BF42F48D
:104770008072624538BF634504D280EA010000F0D0
:104780000040704710B500F01AF800BF8900013EE4
:1047900000F007B800F009B85FEA410C5FEA1C6C52
:1047A00008D080EA010000F050B85FEA400C5FEAF0
:1047B0001C6CF6D14FF00040A0F5800070470EF160
:1047C000020E2EF0030E5EF8044B244204D44FEA8E
:1047D0004102B2F17F4F11D84FEA4003B3F17F4F4E
:1047E0000CD80ED14FEAD07CB2F17F4F0CEB4C0CC1
:1047F0000CF1020C08BF4CEBD17C04E04FF0080C2C
:1048000001E04FEAD17C0CEB4C0324FA03F404F0F2
:104810000704B4F1040C06D20EEB840CBDE8104082
:104820004CF0010C6047DFE80CF0070802024FF083
:104830000040A0F5800010BD0846420018BFD2F12C
:10484000807288BF00F0004010BDFF2141EAD050C7
:10485000C005704780F0004090EA010F7FF59DADE4
:1048600081F0004100F007B890EA010F48BF81F0E5
:1048700000413FF592AD421A04D882F00042A0EB0D
:10488000020011444FEAD0524FF07F4C1CEA410F16
:10489000A2EBD15318BF9CEA026F4AD04FF0004CF4
:1048A0004CEA00204CEA012121FA03FCB0EB0C0C8D
:1048B0000FD412F0FE0F36D05FEA4C001DD5001267
:1048C00040EBC25038BF70471CF03F0F18BF704715
:1048D0000BE0A2F101025FEA1C2040EBC25038BF9E
:1048E00070471CF07F0F18BF7047C3F12003994039
:1048F00014BF401E20F00100704780084FEA1223C9
:1049000008BF7047B0FA80FCA2EB0C02CCF1280C77
:1049100060FA0CF093EA122F04BF00EBC25070470C
:104920004FEAC3707047130A5FEADC1008BF704794
:10493000F6E79CEA026F04D010EA5C0F08BF002083
:10494000704710B5FFF73BFF40DFF63E81F00040B7
:1049500070472100240A05B80000200A2700000043
:10496000110000000000D418097000C40008454878
:10497000C02006F7000000F80711700101020F4087
:10498000C02A410C81D20400250827013F000755A9
:1049900000005F030084000000000000BC49000824
:1049A00000000020980000006C010008544A000834
:1049B00098000020281200008801000800A24A0484
:1049C00000000000000000000102030406070809BF
:1049D00001000000000000000000000000000000D6
:1049E00000000000000000000000000000000000C7
:1049F0000102030401020304060708090204060871
:104A000000000000000000000000000000000000A6
:104A10000000000000000000000000000000000096
:104A20000000000000000000000000000000000086
:104A30000000000000000100000000000000000075
:104A40000000000000000000000000000000000066
:044A50000000000062
:0400000508000131BD
:00000001FF
