:020000040800F2
:10000000300700205D1A0008CB010008CD01000870
:10001000D1010008D5010008D90100080000000046
:10002000000000000000000000000000DD010008EA
:10003000DF01000800000000E1010008E301000802
:10004000771A0008771A0008771A0008771A00084C
:10005000771A0008771A0008771A0008771A00083C
:10006000771A0008771A0008771A0008771A00082C
:10007000771A0008771A0008771A0008771A00081C
:10008000771A0008771A0008771A0008771A00080C
:10009000771A0008771A0008771A00085115000827
:1000A000771A0008771A0008771A0008771A0008EC
:1000B000771A0008E914000845150008771A0008A7
:1000C000771A0008771A0008771A0008771A0008CC
:1000D000771A00082B190008771A0008771A000809
:1000E000771A0008771A0008771A0008771A0008AC
:1000F000771A0008771A0008771A0008771A00089C
:10010000771A0008771A0008771A0008771A00088B
:10011000771A0008771A0008771A0008771A00087B
:10012000771A0008771A0008771A0008771A00086B
:1001300000F002F800F03AF80AA090E8000C8244BF
:100140008344AAF10107DA4501D100F02FF8AFF29C
:10015000090EBAE80F0013F0010F18BFFB1A43F0A5
:1001600001031847E43E0000043F0000103A24BF9A
:1001700078C878C1FAD8520724BF30C830C144BF0C
:1001800004680C607047000000230024002500264E
:10019000103A28BF78C1FBD8520728BF30C148BFEA
:1001A0000B6070471FB51FBD10B510BD03F002FCFA
:1001B0001146FFF7F7FF03F0F5FA03F033FC03B441
:1001C000FFF7F2FF03BC01F02BFB704700BFFEE717
:1001D00000BFFEE700BFFEE700BFFEE770477047C5
:1001E000704770470CB50020019000906B48006884
:1001F00040F480306949086000BF6848006800F436
:10020000003000900198401C0190009818B90198A6
:10021000B0F5A06FF1D16148006810F4003F02D042
:100220000120009001E0002000900098012842D1B8
:100230005B48006840F010005949086008460068B3
:1002400020F0030008600846006840F002000860E3
:10025000524840685149486008464068486008462E
:10026000406840F4806048600846406820F47C1094
:1002700048600846406840F4E81048600846006856
:1002800040F08070086000BF4448006810F0007FB4
:10029000FAD04248406820F00300404948600846D0
:1002A000406840F00200486000BF3C48406800F0F1
:1002B0000C000828F9D10CBD10B5FFF793FF10BD55
:1002C00010B53648006840F001003449086008461F
:1002D000406834490840314948600846006832495E
:1002E00008402E4908600846006820F48020086015
:1002F0000846406820F4FE0048604FF41F00886004
:10030000FFF7DAFF4FF000602849086010BD10B514
:10031000002100200022214B5B6803F00C0121B179
:10032000042906D0082928D107E0214B214C23605D
:1003300027E01F4B1F4C236023E0184B5B6803F43E
:100340007010164B5B6803F48032022303EB90407D
:1003500022B9194B4343174C23600DE00F4B5B68E8
:1003600013F4003F04D0144B4343124C236003E0CA
:100370000F4B43430F4C236003E00D4B0D4C2360A8
:1003800000BF00BF054B5B68C3F303130B4CE15C7C
:10039000084B1B68CB40074C236010BD0010024087
:1003A000002002400000FFF8FFFFF6FE08ED00E02D
:1003B00000127A000000002000093D000400002027
:1003C0007FB505460C460121022001F0F8FEADF88C
:1003D0000850ADF804400020ADF80A00ADF8060062
:1003E00001A9234802F01AF801221146204802F020
:1003F0008CFB1D208DF8000004208DF801008DF885
:10040000020001208DF80300684601F04CFB012139
:10041000174802F05FFB7FBD7FB505460C46012102
:10042000042001F0CCFEADF80850ADF804400020E7
:10043000ADF80A00ADF8060001A90E4801F0EEFF84
:10044000012211460B4802F060FB1E208DF80000CF
:1004500003208DF801008DF8020001208DF80300C3
:10046000684601F020FB0121024802F033FB7FBD0A
:10047000000400400008004008B50121242001F0DC
:1004800091FE0120ADF8000010208DF8030003203C
:100490008DF8020069463B4801F0CEFB0121394846
:1004A00001F075FC0220ADF8000010208DF803006B
:1004B00003208DF802006946324801F0BDFB02219D
:1004C000304801F064FC0420ADF8000010208DF8E5
:1004D000030003208DF8020069462A4801F0ACFBB6
:1004E0000421284801F053FC0820ADF8000010203A
:1004F0008DF8030003208DF802006946214801F0C1
:100500009BFB08211F4801F042FC1020ADF80000C1
:100510008DF8030003208DF802006946194801F0A8
:100520008BFB1021174801F032FC2020ADF80000B1
:1005300010208DF8030003208DF802006946114851
:1005400001F07AFB20210F4801F021FC4020ADF89A
:10055000000010208DF8030003208DF8020069468A
:10056000084801F069FB4021064801F010FC022018
:10057000ADF8000004208DF803006946024801F040
:100580005BFB08BD001401400010014008B50121CB
:10059000342001F007FE2020ADF8000048208DF83F
:1005A00003006946304801F047FB4020ADF80000E9
:1005B00048208DF8030069462C4801F03DFB0120DE
:1005C000ADF8000028208DF803006946284801F0A6
:1005D00033FB08BD10B5044614B10120254908704D
:1005E0002448007858B320211F4801F0B6FB50B1D1
:1005F00040211E4801F0B1FB28B101211C4801F047
:10060000ACFB01281BD10A2001F0BAF800201949DF
:1006100008700121164801F0A0FB012801D1032038
:1006200010BD2021104801F098FB08B90120F7E720
:1006300040210E4801F091FBA0B90220F0E7012112
:100640000B4801F08AFB68B92021074801F085FBBF
:10065000012807D14021054801F07FFB012801D185
:10066000044908700020DBE700100140001401403D
:100670000008014014000020F648006820F4704093
:10068000F44908600846006840F40040086070477C
:10069000F048006820F47040EE49086008460068A1
:1006A00040F440500860704708B501210C2001F06B
:1006B00079FD1020ADF8000048208DF80300694650
:1006C000E44801F0B9FA2020ADF8000010208DF8C0
:1006D000030003208DF802006946DE4801F0ACFA01
:1006E0004020ADF8000048208DF803006946D94845
:1006F00001F0A2FA4020ADF8000048208DF8030078
:100700006946D54801F098FA0120D44908604FF0B5
:100710000000D349C1F8940108BD70B50546002416
:1007200005E0601CC4B2C82C01DD002070BD0221B0
:10073000CC4803F000F80028F3D02946C94802F05D
:10074000A7FF002400BF0121C64802F0F4FF0028E3
:10075000F9D0601CC4B2C82C01DD0020E6E7C14816
:1007600002F098FFC0B2E1E700B587B0012141F285
:10077000040001F017FD7020ADF8180018208DF866
:100780001B0003208DF81A0006A9B24801F054FAA4
:100790007021B04801F0FBFA0020ADF80400ADF87C
:1007A0000600ADF808000220ADF80A000120ADF8FF
:1007B0000C004002ADF80E003820ADF8100000200B
:1007C000ADF812000720ADF8140001A9A64802F008
:1007D00089FE0121A44802F02AFFFF20FFF79DFFB8
:1007E00007B000BD00B587B00121082001F0DAFC98
:1007F0000121880301F0E3FC4FF46040ADF81800DC
:1008000018208DF81B0003208DF81A0006A99248C5
:1008100001F012FA4FF460418F4801F0B8FA00205D
:10082000ADF804004FF48270ADF806000020ADF87A
:1008300008000220ADF80A000120ADF80C004002CB
:10084000ADF80E001820ADF810000020ADF8120031
:100850000720ADF8140001A9824802F043FE0121EF
:10086000804802F0E4FEFF20FFF757FF07B000BD0D
:1008700010B504467B4800884FF6C7710840794997
:10088000088008460088204308800121754802F04E
:10089000CEFE10BD10B50446734800884FF6C771F0
:1008A00008407149088008460088204308800121DB
:1008B0006D4802F0BCFE10BD70B50546002405E091
:1008C000601CC4B2C82C01DD002070BD0221664846
:1008D00002F031FF0028F3D02946634802F0D8FE29
:1008E000002405E0601CC4B2C82C01DD0020ECE748
:1008F00001215D4802F01FFF0028F3D05A4802F0A2
:10090000C9FEC0B2E1E770B5044600251DE014F051
:10091000800F03D001205549086002E000205349B0
:1009200008604FF0010000F008FF01205049086006
:1009300000F003FF00204A49C1F894016006040E4C
:10094000012000F0FAFE681CC5B2082DDFDB70BD87
:1009500070B5044600204549086005461FE014F4C0
:10096000004F03D001204149086002E000203F49C8
:1009700008604FF0010000F0E0FE01203C490860F3
:1009800000F0DBFE00203649C1F894014FF6FF70FD
:1009900000EA4404012000F0D0FE681CC5B2102D0E
:1009A000DDDB70BD70B50024002030490860FFF722
:1009B00063FE00251EE04021264801F0CEF920B15B
:1009C000012040EA440084B203E04FF6FF7000EAE1
:1009D0004404012000F0B1FE01202549086000F028
:1009E000ACFE00201E49C1F89401012000F0A5FED4
:1009F000681CC5B2102DDEDBFFF74AFE204670BD35
:100A000070B50024FFF738FE00251CE04021114896
:100A100001F0A3F920B1012040EA4400C4B201E092
:100A20006006040E012000F088FE012010490860D5
:100A300000F083FE00200A49C1F89401012000F073
:100A40007CFE681CC5B2082DE0DBFFF721FE2046C6
:100A500070BD000000080140000C014090012142DF
:100A6000000021420038004000300140980121423E
:100A70009401214270B504460D460020FE490860ED
:100A800000BF2046FFF73FFF0A2000F056FE284631
:100A9000FFF75EFF0A2000F050FE0120F749C1F881
:100AA000900170BD70B504460020F349086044F021
:100AB00080042046FFF727FF0A2000F03EFEFFF7E4
:100AC00071FF05460A2000F038FE0120EB49C1F80D
:100AD0009001284670BD70B504460E462546E8488C
:100AE000C08940EA053085B229460720FFF7C2FFDA
:100AF00031460820FFF7BEFF70BD70B504460E46B4
:100B00002546DF48C08940EAC51085B2294607203E
:100B1000FFF7B0FF31460920FFF7ACFF70BD70B59D
:100B200004462546D648C08940EA053085B22946A4
:100B30000720FFF79FFF0820FFF7B4FF0546284670
:100B400070BD00BF1FE0CF48006880F00100CE49B3
:100B5000C1F884010846D0F8880180F00100C1F88E
:100B600088010846D0F88C0180F00100C1F88C01A2
:100B70000846D0F8900180F00100C1F890014FF4D0
:100B80007A7000F0FDFDDEE710B504460020BA499A
:100B900008602046FFF7B7FE0120B849C1F8900170
:100BA00010BD70B504461420FFF7EEFFB748408B28
:100BB00000F47F45601E284381B20D20FFF78BFFB4
:100BC000B248808A4CF2FF0100EA010529460A205A
:100BD000FFF781FF002070BD70B5002407E0A84832
:100BE00030F814102046FFF745FF601CC4B2082CF3
:100BF000F5DB0A2407E0A24830F814102046FFF77E
:100C000039FF601CC4B2102CF5DB002407E09F48BC
:100C100030F814102046FFF75EFF601CC4B2102CA1
:100C2000F5DB002407E09A4830F814102046FFF75F
:100C300064FF601CC4B2052CF5DB2620FFF7B1FF72
:100C40000020FFF72FFF05468D480088A84201D0FD
:100C5000FFF777FF70BD2DE9F0418948C08B40F662
:100C6000020240EA02010F20FFF704FF00BF0F203D
:100C7000FFF718FF044640F602000442F7D10E20A9
:100C8000FFF710FF0446C4F300150DB1FFF759FF3D
:100C90000A20FFF744FF0446C4F300170FB1FFF723
:100CA00050FF4FF498410C20FFF7E4FE4FF47841D9
:100CB0000220FFF710FF7548008840F460410020D3
:100CC000FFF709FF6E48C08B40F480510F20FFF7FB
:100CD000D1FE00BF0F20FFF7E5FE044614F4805F4D
:100CE000F8D16748018B0C20FFF7C4FE6748818864
:100CF0000220FFF7F0FE654801880020FFF7EBFEB9
:100D00005F48C08B40F004010F20FFF7B3FE00BF27
:100D10000F20FFF7C7FE044614F0040FF8D10E2091
:100D2000FFF7C0FE0446C4F300260EB1FFF709FF2B
:100D30000020BDE8F0812DE9F05F064655493046B8
:100D400002F0E8FE8246504602F0A6FFC4B22046FA
:100D500002F0C2FF83464FF07E5103F005F8814652
:100D6000514603F0CDF807464FF08F41384602F068
:100D7000FBFF814602F090FF1FFA80F81420FFF776
:100D800003FF3F48C088C0F30E0529460320FFF744
:100D900071FE3B488089C0F30B0529460620FFF70A
:100DA00069FE3D49304602F0ABFF06D23448008967
:100DB0004EF6FF7100EA010503E03148008940F476
:100DC000805529460420FFF755FE2D48408800F441
:100DD0007F4545EA04010120FFF74CFE4146022011
:100DE000FFF748FE00210220FFF787FEBDE8F09FD5
:100DF00070B5FF254FF6FF762448808840F010013B
:100E00000220FFF768FE00BF2048C08B40F00101C0
:100E10000F20FFF760FE00BF0F20FFF780FE00F0FD
:100E2000010424B13000A6F101018EB2F4D10F20EB
:100E3000FFF775FEC0F34804BA2C03DDC62C01DAB7
:100E4000052070BD2800A5F10101CDB2DCD1042040
:100E5000F7E710B50B48006880F001000A49C1F8B7
:100E600084010846D0F8880180F00100C1F88801AB
:100E70000846D0F88C0111E0900121420000214287
:100E8000FE3F000884812242008022421E4000086A
:100E90003E400008CDCC4C410000574480F001009A
:100EA000C1F88C010846D0F8900180F00100FE499D
:100EB00008604FF0640000F063FCFC48D0F8840147
:100EC00080F00100F949C1F884010846D0F8880192
:100ED00080F00100C1F888010846D0F88C0180F04C
:100EE0000100C1F88C010846D0F8900180F00100A3
:100EF000ED4908604FF0640000F042FCEB48D0F888
:100F0000840180F00100E949C1F884010846D0F865
:100F1000880180F00100C1F888010846D0F88C01F2
:100F200080F00100C1F88C010846D0F8900180F0F3
:100F30000100DD4908604FF0640000F021FCDB484F
:100F4000D0F8840180F00100D849C1F88401084636
:100F5000D0F8880180F00100C1F888010846D0F877
:100F60008C0180F00100C1F88C010846D0F8900196
:100F700080F00100C1F8900110BD10B504460020BA
:100F8000CB4908604FF02000FFF7BDFC200EFFF7B3
:100F9000BAFCC4F30740FFF7B6FCC4F30720FFF721
:100FA000B2FCE0B2FFF7AFFC0120C249C1F89001EA
:100FB000002010BD10B504460120BD4908604FF067
:100FC0000000BC49C1F894014FF00100BA49086023
:100FD0004FF07000FFF7D8FD0A2000F0D1FBFFF7BB
:100FE000FBFD0A2000F0CCFBB448FFF7C6FF012050
:100FF00000F0C6FB2046FFF79EFE0A2000F0C0FB73
:10100000FFF729FEFFF725FF1420FFF7BDFD0120A4
:1010100010BD70B50024AA48C0894FF2CF710840B6
:10102000044321460720FFF725FD0920FFF73AFD7D
:101030000546284670BD10B504461420FFF7A4FDF0
:10104000142000F09DFB9E48C0894FF6FE7200EA16
:1010500002010720FFF70EFD322C2AD004DC022CFF
:1010600007D00A2C44D114E0642C31D0962C3FD107
:101070003DE046F221610020FFF7FCFC41F6D4017F
:101080000A20FFF7F7FC4FF205510020FFF723FD80
:101090003AE041F221210020FFF7ECFC41F6D401B7
:1010A0000A20FFF7E7FC4FF206710020FFF713FD5F
:1010B0002AE023210020FFF7DDFC41F6D0010A20C1
:1010C000FFF7D8FC4FF206610020FFF704FD1BE09C
:1010D00021210020FFF7CEFC41F6D4010A20FFF7C2
:1010E000C9FC4FF206710020FFF7F5FC0CE00BE0A5
:1010F0007348C08940F001010720FFF7BBFC1420B2
:1011000000F03EFB012010BD00BF6D48C08940F0DB
:1011100001010720FFF7AEFC142000F031FB002096
:10112000F1E710B50446022C02D0042C1BD109E0D3
:101130006348808B4BF6FB7200EA02010E20FFF73A
:10114000CAFC12E05E48808B4BF6FB7200EA02019B
:101150000E20FFF7C0FC5A48808B40F004010E209F
:10116000FFF7B9FC01E0012010BD00BF0020FBE744
:1011700070B504460D466020FFF706FD012000F023
:10118000FFFA00204A4908604FF04000FFF7BBFB20
:1011900003E014F8010BFFF7B6FB2800A5F10101ED
:1011A000CDB2F6D101204249086070BD70B5044649
:1011B0000D46E020FFF7E8FC022000F0BEFA002018
:1011C0003B4908604FF0C000FFF79DFB03E0FFF7CD
:1011D00017FC04F8010B2800A5F10101CDB2F6D1EE
:1011E00001203349086070BD70B50446022C01DB54
:1011F000072C01DD012070BD1420FFF7C5FC30482D
:1012000000894FF6F07100EA010545EA440040F01C
:1012100001010420FFF75FFC0A2000F08EFA012094
:10122000FFF77DFCC0F3C01080F00100E3E770B56C
:101230004FF6FF751820FFF7A7FC2148008B4FF6EB
:10124000FF6200EA02010C20FFF714FC0F20FFF7F9
:1012500029FC40F0010631460F20FFF70BFC00BFD0
:101260000F20FFF71FFC00F001042800A5F1010189
:101270008DB201D0002CF3D1002D04DD0C20FFF73E
:1012800011FCC4B200E000241420FFF77DFC012013
:1012900000F053FA1620FFF777FC012000F04DFA1A
:1012A0001820FFF771FC0DE090812242008022425D
:1012B0009001214200002142980121428CC57534E1
:1012C000FE3F0008204670BD10B5FFF791FD0428D1
:1012D00000D110BD1420FFF757FC45210820FFF76F
:1012E000FAFB40F27F210120FFF7F5FB6248408BBB
:1012F00040F480610D20FFF7BDFB5F48C08B40F4D8
:1013000000710F20FFF7B6FB0020E2E710B51420B4
:10131000FFF73AFC45210820FFF7DDFB4FF60541BA
:101320000120FFF7D8FBFFF763FD042800D110BDB3
:101330005248808840F010010220FFF7CCFB4E4855
:10134000C08B40F400710F20FFF794FB0020EEE704
:1013500010B51420FFF718FC4D210820FFF7BBFB48
:101360004FF605410120FFF7B6FBFFF741FD0428CA
:1013700000D110BD4148808840F030010220FFF7C5
:10138000AAFB3D48C08B40F400710F20FFF772FBB1
:101390000020EEE770B5044625011420FFF7F4FBAA
:1013A00029460220FFF7A9FB70BD70B505463448F9
:1013B00000884FF6807100EA01041420FFF7E4FB77
:1013C000052000F0DDF9092D3CD2DFE805F0050B22
:1013D00011171D23292F350044F001010020FFF7CC
:1013E0008CFB34E044F009010020FFF786FB2EE07F
:1013F00044F00A010020FFF780FB28E044F061017F
:101400000020FFF77AFB22E044F02A010020FFF7DA
:1014100074FB1CE044F01C010020FFF76EFB16E09B
:1014200044F026010020FFF768FB10E044F03E0185
:101430000020FFF762FB0AE044F05F010020FFF7A5
:101440005CFB04E0052000F09BF9012070BD00BFAB
:10145000052000F095F90020F8E710B51620FFF7F9
:1014600093FB012000F069F91820FFF78DFB0120A4
:1014700000F063F910BD0000FE3F00081E400008A8
:101480003E4000080EB50121084600F08BFE062103
:10149000012000F0E5FC4020019000208DF80800BC
:1014A00008208DF8090001208DF80A0001A800F03D
:1014B00055FA17208DF8000002208DF801008DF8F4
:1014C000020001208DF80300684600F0ECFA1620B7
:1014D000FFF75AFB022000F030F91820FFF754FB09
:1014E000022000F02AF90EBD10B501217B4801F061
:1014F000CBFD7B480068401C7949086008460068BD
:101500000A281EDD1420FFF73FFB012000F015F92B
:101510001620FFF739FB012000F00FF91820FFF724
:1015200033FB012000F009F900206D4908606DA02F
:1015300002F002FA6E48006880F001006D49C1F8BF
:10154000880110BD10B501216B4801F09DFD10BD53
:1015500010B500246948006840F040006749086001
:1015600026216748FFF722FE012000F0E6F8182048
:10157000FFF70AFB012000F0E0F80020584908605E
:101580007D2000F0B8F95E49087800F0B4F95C49B4
:10159000487800F0B0F95A49887800F0ACF9584919
:1015A000C87800F0A8F95649087900F0A4F9544920
:1015B000487900F0A0F95249887900F09CF9504927
:1015C000C87900F098F94E49087A00F094F94C492E
:1015D000487A00F090F94A49887A00F08CF9484935
:1015E000C87A00F088F94649087B00F084F944493C
:1015F000487B00F080F94249887B00F07CF9404943
:10160000C87B00F078F93E49087C00F074F93C4949
:10161000487C00F070F93A49887C00F06CF9384950
:10162000C87C00F068F93649087D00F064F9344957
:10163000487D00F060F93249887D00F05CF930495E
:10164000C87D00F058F92E49087E00F054F92C4965
:10165000487E00F050F92A49887E00F04CF928496C
:10166000C87E00F048F92649087F00F044F9244973
:10167000487F00F040F92249887F00F03CF920497A
:10168000C87F00F038F91E4991F8200000F033F9C6
:101690001B4991F8210000F02EF9194991F8220018
:1016A00000F029F9164991F8230000F024F91449B3
:1016B00091F8240000F01FF9114991F8250000F07D
:1016C0001AF91048006880F001000A49C1F8840145
:1016D00010BD72B6704762B670470000000400404B
:1016E0001800002072657374617274200D0A000086
:1016F00088812242008022420008004014040140F8
:101700005C0000208481224210B56FF0040000F0DC
:1017100015FA2D4800682D49B0FBF1F02C490870EE
:101720000846007800EB4001C1EBC0104FF6FF7196
:1017300001EAC0002749088010BD0146244A1278FA
:101740004A434FF0E0235A6100229A611A46126917
:1017500042F001021A6100BF4FF0E022106910F060
:10176000010F02D010F4803FF6D04FF0E022126952
:1017700022F001024FF0E0231A6100229A617047C3
:101780000146144A12884A434FF0E0235A6100226E
:101790009A611A46126942F001021A6100BF4FF0C5
:1017A000E022106910F0010F02D010F4803FF6D053
:1017B0004FF0E022126922F001024FF0E0231A619B
:1017C00000229A61704700000000002000127A0099
:1017D0001E0000202000002010B54FF4A06000F093
:1017E0005DF910BD10B5FFF78FFFFFF7F5FF00F0B3
:1017F0002AF8FEF741FEFEF7C9FEFEF755FF07483F
:10180000FFF7D8FB41F61F4141F28730FEF7D8FDC4
:10181000FFF738FE02F03AF810BD00002180ED43DA
:10182000014600BF704770B504460D4600BF402119
:10183000414801F0D7FD0028F9D0E1B23E4801F05F
:1018400063FD204670BD00B587B00121880300F01C
:10185000A9FC4FF4E13003900020ADF81000ADF882
:101860001200ADF81400ADF818000C20ADF8160009
:1018700003A9314801F04FFC01212F4801F0D7FCAA
:10188000012240F225512C4801F0DDFC0121042009
:1018900000F088FC4FF40070ADF8080003208DF8CC
:1018A0000A0018208DF80B0002A9244800F0C4F9A2
:1018B0004FF48060ADF8080003208DF80A00042082
:1018C0008DF80B0002A91D4800F0B6F94FF4A06096
:1018D00000F0E4F825208DF8040003208DF80500C1
:1018E00002208DF8060001208DF8070001A800F005
:1018F000DAF807B000BD10B5044621460E4801F0E5
:1019000003FD00BF40210C4801F06CFD0028F9D018
:1019100010BD70B505460E46002403E0285DFFF7B4
:10192000EAFF641CB442F9DB70BD10B540F22551EA
:10193000014801F06DFD10BD003801400008014074
:10194000002044490860091D0860091D0860091D40
:10195000086041483F4914310860704700213D4903
:101960008279002A3AD00A46126803689A430B46E5
:101970001A600A1D126803689A430B1D1A600279E7
:1019800011440A6803681A430A60324A083212682E
:1019900003689A432F4B08331A601A1D12680368B4
:1019A0009A432C4B0C331A604279102A0ED11A1F1D
:1019B000126803681A43274B08331A601A1D12680D
:1019C00003681A43234B0C331A600DE02149427916
:1019D00011440A6803681A430A6005E00279114459
:1019E0000A6803689A430A60704700210160017128
:1019F0000C2141710021817170471649103109682D
:101A00000143144A10321160704701460020114A08
:101A1000143212680A4201D0012000E00020704711
:101A20000C49143108607047014600200022094B20
:101A30001B6803EA0102074B14331B680B4202D0F8
:101A40000AB1012000E0002070470249143108600B
:101A50007047000000040140FFFF0F000948804765
:101A600009480047FEE7FEE7FEE7FEE7FEE7FEE780
:101A7000FEE7FEE7FEE7FEE704480549054A064B98
:101A800070470000C1020008310100083001002049
:101A9000300700203003002030030020314901438B
:101AA000314A1160704770B5002100230F22C478BD
:101AB0000CB32D4C246804F4E064C4F5E064210AFE
:101AC000C1F10403CA40447804FA03F18478144055
:101AD00021430901254C0678A155047804F01F051F
:101AE0000124AC4005786D114FF0E02606EB85052A
:101AF000C5F8004109E0047804F01F050124AC405A
:101B00001B4D0678761145F8264070BD194A0A40EB
:101B10000243154B1B1F1A60704739B1124A121D40
:101B200012680243104B1B1D1A6006E00E4A121D7C
:101B3000126882430C4B1B1D1A607047042808D1A1
:101B40004FF0E021096941F004014FF0E0221161FA
:101B500007E04FF0E021096921F004014FF0E02295
:101B6000116170470000FA050CED00E000E400E0B0
:101B700080E100E080FFFF1F10B50446CA488442A0
:101B800008D10121042000F027FB0021042000F0EF
:101B900023FB46E0C548844208D10121082000F01B
:101BA0001BFB0021082000F017FB3AE0C0488442EC
:101BB00008D10121102000F00FFB0021102000F0BF
:101BC0000BFB2EE0BB48844208D10121202000F00D
:101BD00003FB0021202000F0FFFA22E0B6488442F7
:101BE00008D10121402000F0F7FA0021402000F048
:101BF000F3FA16E0B148844208D10121802000F0B8
:101C0000EBFA0021802000F0E7FA0AE0AC488442B9
:101C100007D10121801500F0DFFA0021A01500F0A6
:101C2000DBFA10BD10B50121084600F0D5FA0021FD
:101C3000012000F0D1FA10BD2DE9F0410246002547
:101C40000026002000230024002791F803C00CF098
:101C50000F0591F803C01CF0100F03D091F802C0DB
:101C60004CEA050591F800C0BCF1000F31D01468B2
:101C700000202BE04FF0010C0CFA00F3B1F800C08B
:101C80000CEA03069E4220D183004FF00F0C0CFAA1
:101C900003F7BC4305FA03FC4CEA040491F803C0C3
:101CA000BCF1280F06D14FF0010C0CFA00FCC2F871
:101CB00014C00AE091F803C0BCF1480F05D14FF001
:101CC000010C0CFA00FCC2F810C0401C0828D1D34B
:101CD0001460B1F800C0BCF1FF0F34DD546800207F
:101CE0002EE000F1080C4FF0010808FA0CF3B1F8EF
:101CF00000C00CEA03069E4221D183004FF00F0C76
:101D00000CFA03F7BC4305FA03FC4CEA040491F80F
:101D100003C0BCF1280F05D100F1080C08FA0CF83B
:101D2000C2F8148091F803C0BCF1480F07D100F14C
:101D3000080C4FF0010808FA0CF8C2F81080401C9B
:101D40000828CED35460BDE8F0814FF6FF710180C2
:101D5000022181700421C1707047024600209368FF
:101D60000B4201D0012000E0002070470146886846
:101D700080B2704702460020D3680B4201D0012098
:101D800000E0002070470146C86880B270470161DA
:101D90007047416170470AB1016100E041617047DD
:101DA000C16070474FF480320A4382618161826171
:101DB00082698269704702460020424B18684FF6DC
:101DC0008073184040EA021008433E4B1860704789
:101DD0003D49C8617047F0B50A4600230024002140
:101DE000002500F00046B6F1004F02D1354EF169F2
:101DF00001E0344E7168C0F3034583B200F440162D
:101E0000B6F5401F08D121F070612E4E766826F09D
:101E100070662C4F7E6012E000F48016B6F5801FCD
:101E200006D1032606FA05F4A14341F0706106E0ED
:101E3000460D360103FA06F6B14341F0706122B156
:101E4000460D360103FA06F6314300F00046B6F1BE
:101E5000004F02D11B4EF16101E01A4E7160F0BDDE
:101E600030B500228B071C0F0F2303FA04F2154B29
:101E700008338C1053F824309343124C08348D10DF
:101E800044F8253023468C1053F824308C07240F57
:101E900000FA04F423430B4C08348D1044F8253029
:101EA00030BD0A490860704700080140000C01403D
:101EB000001001400014014000180140001C0140C6
:101EC000002001400000014000002042DC002042D0
:101ED000DD48006840F00100DB49086008464068C2
:101EE000DA490840D849486008460068D84908409F
:101EF000D54908600846006820F48020086008463C
:101F0000406820F4FE0048604FF41F00886070476E
:101F1000CD49096821F48031CB4A11601146096826
:101F200021F480211160B0F5803F03D0B0F5802FFF
:101F30000ED106E0C449096841F48031C24A1160FB
:101F400007E0C149096841F4A021BF4A116000E0DF
:101F500000BF00BF704710B50146002200230020DB
:101F60004A11012A02D1B84C236806E0022A02D1A4
:101F7000B54C236A01E0B44C636A01F01F020124EE
:101F800094401C4201D0012000E0002010BD38B573
:101F9000002000900024002500BF3120FFF7DBFF68
:101FA00005460098401C00900098B0F5A06F01D045
:101FB000002DF2D03120FFF7CEFF08B1012400E060
:101FC0000024204638BD014600209F4A106820F0BA
:101FD000F80040EAC100106070479E4908607047F1
:101FE00002460020984B586820F47C1042EA010316
:101FF0001843954B586070479649086670470146EC
:102000000020914A506820F0030008435060704758
:102010008D48406800F00C007047014600208A4A55
:10202000506820F0F00008435060704701460020DF
:10203000854A506820F4E0600843506070470146CC
:102040000020814A506820F4605040EAC10050608E
:10205000704729B17C4A527A02437B4B5A7204E0A2
:10206000794A527A8243784B5A7270477A490860AB
:10207000704701460020744A506820F440400843ED
:10208000506070470021754A11706F4A82F8201025
:10209000012802D0042808D103E001216F4A117001
:1020A00004E005216D4A117000E000BF00BF7047D9
:1020B0006B49086070476449096A0143624A1162CA
:1020C0007047674944390860704730B500210022E5
:1020D000002400235C4D6D6805F00C0121B104293A
:1020E00005D0082923D105E05E4D056022E05D4D55
:1020F00005601FE0544D6D6805F47012524D6D6817
:1021000005F48034022505EB92421CB9564D554327
:1021100005600BE04C4D6D6815F4003F03D0524D47
:102120005543056002E04F4D5543056002E04D4DBB
:10213000056000BF00BF444D6D6805F0F00109095E
:102140004A4D6B5C0568DD4045603F4D6D6805F4A8
:10215000E061090A454D6B5C4568DD4085603A4D9C
:102160006D6805F46051C90A404D6B5C4568DD40FF
:10217000C560354D6D6805F44041890B3C4D6B5C85
:10218000C568B5FBF3F5056130BD29B12E4A52692A
:1021900002432D4B5A6104E02B4A526982432A4B79
:1021A0005A61704729B1284A92690243264B9A61C5
:1021B00004E0254A92698243234B9A61704729B112
:1021C000214AD2690243204BDA6104E01E4AD269F7
:1021D00082431D4BDA61704729B11B4AD268024322
:1021E000194BDA6004E0184AD2688243164BDA6071
:1021F000704729B1144A12690243134B1A6104E073
:10220000114A12698243104B1A61704714494039D0
:10221000086070470F49C86470470B49C871704720
:102220000948406A40F0807007494862704701469B
:102230000020054A92680A4201D0012000E00020F7
:102240007047014988727047001002400000FFF893
:10225000FFFFF6FE00004242D8004242201002403A
:102260008004424200127A0000093D00280000204C
:102270003800002010B50446FE48844208D10121F0
:10228000C014FFF7A9FF0021E014FFF7A5FFC4E089
:10229000B4F1804F08D101210846FFF7AAFF0021C1
:1022A0000120FFF7A6FFB8E0F348844208D10121DE
:1022B0000220FFF79EFF00210220FFF79AFFACE00B
:1022C000EE48844208D101210420FFF792FF00214B
:1022D0000420FFF78EFFA0E0E948844208D10121E5
:1022E0000820FFF786FF00210820FFF782FF94E017
:1022F000E448844208D101211020FFF77AFF002131
:102300001020FFF776FF88E0DF48844208D10121E2
:102310002020FFF76EFF00212020FFF76AFF7CE0FE
:10232000DA48844208D101214014FFF755FF00210B
:102330006014FFF751FF70E0D548844209D10121B4
:10234000C804FFF749FF00214FF40020FFF744FFC6
:1023500063E0D048844209D101210805FFF73CFF22
:1023600000214FF48010FFF737FF56E0CA4884423F
:1023700009D101214805FFF72FFF00214FF400107C
:10238000FFF72AFF49E0C548844208D101214020D7
:10239000FFF72FFF00214020FFF72BFF3DE0C04853
:1023A000844208D101218020FFF723FF00218020F3
:1023B000FFF71FFF31E0BB48844208D1012180159F
:1023C000FFF717FF0021A015FFF713FF25E0B64820
:1023D000844209D101210804FFF7FEFE00214FF4D9
:1023E0008030FFF7F9FE18E0B048844209D101219E
:1023F0004804FFF7F1FE00214FF40030FFF7ECFE38
:102400000BE0AB48844208D101218804FFF7E4FEC9
:1024100000214FF48020FFF7DFFE10BD002202886C
:10242000944B98420ED0994B98420BD0B0F1804F0C
:1024300008D0914B984205D0904B984202D0904BD7
:10244000984204D14FF68F731A404B881A438D4B34
:10245000984207D08C4B984204D04FF6FF431A4065
:10246000CB881A4302808B8883850B880385814B38
:1024700098420BD0854B984208D08B4B984205D0A0
:102480008A4B984202D08A4B984201D10B7A03863C
:1024900001238382704770B5002400220023058C3D
:1024A0004FF6FE7635400584028C8388048B4FF608
:1024B0008F752C40B51E2C400D882C43751E2A406C
:1024C0000D892A434D882A436A4DA8420BD06F4D8F
:1024D000A84208D0744DA84205D0744DA84202D03D
:1024E000734DA84213D14FF6F7752A404D892A4300
:1024F0004FF6FB752A408D882A434FF6FF652B4027
:102500004FF6FF552B408D892B43CD892B4383807C
:102510000483CD888586028470BD70B500240022B6
:102520000023058C4FF6EF7635400584028C8388B6
:10253000048B48F6FF752C404FF6FF452C400D8864
:102540004FF6FF7606EA05252C434FF6DF752A4045
:102550000D8906EA05152A434D8806EA05152A4322
:10256000444DA84202D0494DA8421DD14FF67F7577
:102570002A404D894FF6FF7606EA05152A434FF6A5
:10258000BF752A408D8806EA05152A434FF6FF35A8
:102590002B404FF2FF752B408D8906EA85052B43B2
:1025A000CD8906EA85052B4383800483CD88058782
:1025B000028470BD70B5002400220023058C4FF604
:1025C000FF6635400584028C8388848B4FF68F75B7
:1025D0002C404FF6FC752C400D882C434FF6FF55D0
:1025E0002A400D894FF6FF7606EA05252A434D88D5
:1025F00006EA05252A431F4DA84202D0234DA842D2
:102600001DD14FF2FF752A404D894FF6FF7606EA3D
:1026100005252A434FF6FF352A408D8806EA052511
:102620002A434EF6FF752B404DF6FF752B408D89E2
:1026300006EA05152B43CD8906EA05152B43838051
:102640008483CD888587028470BD70B50022002305
:102650000024058C4EF6FF7635400584038C848873
:10266000828B48F6FF752A404FF6FF452A400D88B9
:1026700020E00000002C0140000400400008004061
:10268000000C0040001000400014004000340140E5
:10269000004C01400050014000540140001800402F
:1026A000001C004000200040004001400044014068
:1026B000004801404FF6FF7606EA05252A434DF60D
:1026C000FF752B400D8906EA05352B434D8806EA38
:1026D00005352B43FA4DA84202D0FA4DA84208D145
:1026E0004BF6FF752C408D894FF6FF7606EA85156F
:1026F0002C4384808283CD88A0F84050038470BD31
:10270000828B4FF2FF331A408283828B4FF6FF7326
:1027100003EA01231A4382837047F0B50C4615463D
:10272000002200210026078C4EF6FF7C07EA0C07EA
:102730000784828B018C4FF6FF7707EA043640F658
:10274000FF473A404FF6FF7707EA05273A434FF62F
:10275000FF7707EA03373A43D94FB8420ED0D94F33
:10276000B8420BD0B0F1804F08D0D74FB84205D057
:10277000D64FB84202D0D64FB84206D14DF6FF77B9
:10278000394046F48057394305E047F6FF57394052
:1027900044F48057394382830184F0BD828B4FF625
:1027A000F3731A408283828B0A4382837047F0B5A9
:1027B0000C461546002200210026078C4FF6FF6CC0
:1027C00007EA0C070784828B018C4FF6FF7707EA34
:1027D00004264FF60C773A404FF6FF7707EA0317C7
:1027E0002F433A43B64FB8420ED0B64FB8420BD043
:1027F000B0F1804F08D0B44FB84205D0B34FB842C3
:1028000002D0B34FB84206D14FF6FF57394046F4D5
:102810008077394305E04FF2FF57394044F4807721
:10282000394382830184F0BD028B4FF2FF331A409B
:102830000283028B4FF6FF7303EA01231A430283DC
:102840007047F0B50C461546002200210026078C83
:102850004FF6EF7C07EA0C070784028B018C4FF6DA
:10286000FF7707EA041640F6FF473A404FF6FF7736
:1028700007EA03373A434FF6FF7707EA05273A435B
:102880008F4FB8420ED08F4FB8420BD0B0F1804F6F
:1028900008D08D4FB84205D08C4FB84202D08C4F33
:1028A000B84206D14FF6DF77394046F0100739437A
:1028B00005E04FF65F77394044F010073943028353
:1028C0000184F0BD028B4FF6F3731A400283028B32
:1028D0000A4302837047F0B50C46154600220021DA
:1028E000068C4FF6FE773E400684028B018C4FF635
:1028F0000C7632407E1C06EA03162E433243704E9D
:10290000B0420ED06F4EB0420BD0B0F1804F08D025
:102910006D4EB04205D06D4EB04202D06C4EB0420A
:1029200006D14FF6FD76314044F00106314305E013
:102930004FF6F576314044F00106314302830184BD
:10294000F0BD70B505460C465D4885420ED05D4829
:1029500085420BD0B5F1804F08D05B48854205D049
:102960005A48854202D05A48854200D100E000BF53
:10297000208850B92389A28861882846FFF7ABFFD9
:10298000E1882846FFF79EFF25E0208804280AD129
:102990002389A28861882846FFF753FFE1882846EB
:1029A000FFF742FF17E0208808280AD12389A28870
:1029B00061882846FFF7FBFEE1882846FFF7EEFE18
:1029C00009E02389A28861882846FFF7A6FEE188EE
:1029D0002846FFF795FE70BD2DE9F04105460C46EF
:1029E00000260127608808B9022600E00026A0889A
:1029F000012801D1022700E001272088A0B92389FE
:102A0000A28861882846FFF766FFE1882846FFF71D
:102A100059FF23893A4631462846FFF712FFE188DD
:102A20002846FFF701FF13E02389A2886188284622
:102A3000FFF707FFE1882846FFF7F6FE23893A46AD
:102A400031462846FFF747FFE1882846FFF73AFF5F
:102A5000BDE8F0810A884B881A438B881A43CB88DB
:102A60001A430B891A434B891A438B891A43A0F8DE
:102A7000442070474FF6FF71818000210180C180A2
:102A80004180017270470021018041808180C180B6
:102A9000018141818181C181704700210180418094
:102AA000012181800021C1800181704700210180C6
:102AB00041808180C1800181418181817047000016
:102AC000002C014000340140000400400008004098
:102AD000000C004021B1028842F00102028004E0B3
:102AE00002884FF6FE731A400280704731B1B0F889
:102AF000442042F40042A0F8442005E0B0F844200D
:102B0000C2F30E02A0F8442070471AB183890B4328
:102B1000838102E083898B43838170478182704780
:102B200041EA0203A0F8483070471AB183890B4389
:102B3000838102E083898B438381704701894FF64B
:102B4000F8721140018170470A46002101894FF651
:102B50008F73194011430181704730B504460D460B
:102B600029462046FFF7F0FF208940F0070020812A
:102B700030BD2DE9F04104460D4616461F46602D36
:102B800006D13B46012231462046FFF75AFE05E0BA
:102B90003B46012231462046FFF79DFE294620464E
:102BA000FFF7D2FF208940F007002081BDE8F081C7
:102BB00030B50C4600210189C9B24FF6FF7505EA10
:102BC0000325154325432943018130BD2DE9F041FB
:102BD00005460E4617469846002443463A46314677
:102BE0002846FFF7E5FF2C894FF6F870044044F0C3
:102BF00007044FF68F70044044F070042C81BDE848
:102C0000F081F0B504460D4616461F463B46324657
:102C100029462046FFF7CCFF208940F480402081E0
:102C2000F0BD0185828270470A46002101884FF677
:102C30008F731940114301807047F0B50C4615465B
:102C40001E460021002200230189028B038C4FF6CF
:102C5000F877394021434FF6FC473A4040F20117DC
:102C60003A434FF6DD773B404FF6FF7707EA06170A
:102C70002F433B43018102830384F0BD0A460021B8
:102C8000018B4FF68F7319401143018370470A4639
:102C90000021018B48F6FF7319404FF6FF7303EADA
:102CA00002231943018370470A460021818B4FF6A6
:102CB0008F7319401143818370470A460021818B2D
:102CC00048F6FF7319404FF6FF7303EA02231943D6
:102CD0008183704721B1028842F08002028004E0C3
:102CE00002884FF67F731A400280704721B18288B4
:102CF00042F00402828004E082884FF6FB731A409F
:102D00008280704721B1828842F00802828004E00C
:102D100082884FF6F7731A408280704721B182880B
:102D200042F00102828004E082884FF6FE731A406E
:102D3000828070470A460021018B4FF6F7731940D5
:102D40001143018370470A460021018B4FF2FF7344
:102D500019404FF6FF7303EA0223194301837047BA
:102D60000A460021818B4FF6F77319401143818386
:102D700070470A460021818B4FF2FF7319404FF6CE
:102D8000FF7303EA02231943818370470A46002137
:102D9000018B4FF6FB7319401143018370470A46BC
:102DA0000021018B4FF6FF3319404FF6FF7303EA02
:102DB00002231943018370470A460021818B4FF695
:102DC000FB7319401143818370470A460021818BB0
:102DD0004FF6FF3319404FF6FF7303EA02231943FE
:102DE000818370470A460021018B4FF67F7319409B
:102DF0001143018370470A460021018BC1F30E0184
:102E00004FF6FF7303EA02231943018370470A4612
:102E10000021818B4FF67F731940114381837047E6
:102E20000A460021818BC1F30E014FF6FF7303EABE
:102E300002231943818370470A460021018C4FF613
:102E4000FD7319401143018470470A460021018C2B
:102E50004FF6F77319401143018470470A46002169
:102E6000018C4FF6DF7319404FF6FF7303EA02132C
:102E70001943018470470A460021018C4FF67F7385
:102E800019404FF6FF7303EA021319430184704798
:102E90000A460021018C4FF6FF5319404FF6FF738D
:102EA00003EA02231943018470470A460021018C7A
:102EB0004FF2FF7319404FF6FF7303EA02231943E1
:102EC000018470470A460021018C4DF6FF731940BA
:102ED0004FF6FF7303EA023319430184704730B59C
:102EE000002301248C40A3B2048C9C430484048CF2
:102EF00002FA01F5ADB22C43048430BD30B5002395
:102F000004248C40A3B2048C9C430484048C02FAF5
:102F100001F5ADB22C43048430BD70B503460020EA
:102F200000241846183001258D40ACB21D8CA543F5
:102F30001D8409B1082909D100EB6100056825F05D
:102F4000700505600568154305600EE00D1FC5F3AB
:102F50004E052844056825F4E045056005684FF6F0
:102F6000FF7606EA02263543056070BD21B102886E
:102F700042F00202028004E002884FF6FD731A401C
:102F80000280704721B1028842F00402028004E00E
:102F900002884FF6FB731A400280704721B1828885
:102FA00042F08002828004E082884FF67F731A40EC
:102FB0008280704702884FF6F7731A4002800288B9
:102FC0000A430280704782884FF68F731A408280CE
:102FD00082880A438280704702894FF6F8731A404C
:102FE000028102890A430281704702894FF67F738A
:102FF0001A40028102890A43028170478184704726
:103000008185704781867047018770478187704747
:10301000A0F84010704702884FF6FF431A40028024
:1030200002880A43028070470146888E7047014635
:10303000088F70470146888F70470146B1F84000FD
:1030400070470146888C70470146088D70470246DC
:103050000020138A0B4201D0012000E000207047BD
:10306000CA430282704730B5024600200023002484
:10307000158A05EA0103958905EA010413B10CB12B
:10308000012000E0002030BDCA43028270470000EA
:1030900010B50446FB48844209D101218803FFF79B
:1030A0009BF800214FF48040FFF796F832E0F64895
:1030B000844209D101214804FFF79BF800214FF415
:1030C0000030FFF796F825E0F048844209D101214D
:1030D0008804FFF78EF800214FF48020FFF789F86D
:1030E00018E0EB48844209D10121C804FFF781F8B8
:1030F00000214FF40020FFF77CF80BE0E548844204
:1031000008D101210805FFF774F800214FF4801061
:10311000FFF76FF810BD2DE9F04786B005460E4663
:103120000024A24600BFA1460027B08900B100BF1D
:103130002F462C8A4CF6FF700440F08804432C8202
:10314000AC894EF6F3100440B08831890843718988
:1031500008430443AC81AC8A4FF6FF400440B08979
:103160000443AC8201A8FEF7B0FFC648874202D1F3
:10317000DDF810A001E0DDF80CA0A88910F4004FE4
:1031800008D00AEBCA0000EB0A1031684900B0FB16
:10319000F1F807E00AEBCA0000EB0A103168890079
:1031A000B0FBF1F86420B8FBF0F0040120096421C1
:1031B00001FB1089A88910F4004F08D0322000EBE1
:1031C000C900B0FBF1F000F00700044308E0322032
:1031D00000EB09106421B0FBF1F000F00F00044394
:1031E0002C8106B0BDE8F0874FF416510160002134
:1031F0008180C18001810C21418100218181704742
:1032000010B502460020108A4FF2FF0318400B88C9
:103210004C8823438C882343CC8823431843108253
:1032200010BD0021018041808180C180704721B1A3
:10323000828942F40052828104E082894DF6FF7354
:103240001A4082817047F0B503460024002600250D
:103250000020A1F510676A3F00D100BF1846C1F3F6
:10326000421401F01F06012707FA06F5012C01D1CF
:103270000C3004E0022C01D1103000E014301AB1FF
:1032800007682F43076002E00768AF430760F0BD9F
:103290001AB1838A0B43838202E0838A8B43838241
:1032A0007047028A4FF6F0731A400282028A0A437C
:1032B0000282704782894FF2FF731A4082818289AD
:1032C0000A438281704721B1828942F002028281E1
:1032D00004E082894FF6FD731A4082817047028AAA
:1032E0004FF6DF731A400282028A0A430282704755
:1032F00021B1028A42F48042028204E0028A4BF643
:10330000FF731A4002827047C1F30802828070473F
:1033100001468888C0F308007047818941F00101A7
:1033200081817047028BD2B20283028B42EA012272
:1033300002837047028B02F47F420283028B0A43AE
:103340000283704721B1828A42F02002828204E027
:10335000828A4FF6DF731A408282704721B1828AD7
:1033600042F01002828204E0828A4FF6EF731A4024
:103370008282704721B1828A42F00802828204E090
:10338000828A4FF6F7731A408282704721B1828990
:1033900042F40042828103E08289C2F30E028281FC
:1033A000704721B1828A42F40062828204E0828AFC
:1033B0004FF2FF731A4082827047828A4FF6FB7386
:1033C0001A408282828A0A438282704721B1828AAD
:1033D00042F00202828204E0828A4FF6FD731A40B4
:1033E0008282704702460020B1F5007F00D100BF05
:1033F00013880B4201D0012000E00020704701F447
:103400000072B2F5007F00D100BFCA43028070474E
:1034100070B502460024002300250020A1F51066A7
:103420006A3E00D100BFC1F3421501F01F0301261F
:1034300006FA03F3012D02D19689334006E0022DEE
:1034400002D1168A334001E0968A33400C120126DD
:1034500006FA04F41688344013B10CB1012000E0E0
:10346000002070BD10B500220023A1F510646A3C55
:1034700000D100BF0A1201249440A3B2DC430480AF
:1034800010BD0000003801400044004000480040EA
:10349000004C00400050004010B50446BE48844235
:1034A00008D101218014FEF797FE0021A014FEF739
:1034B00093FE16E0B948844208D101210014FEF7BA
:1034C00098FE00212014FEF794FE0AE0B4488442DE
:1034D00007D10121C013FEF78CFE0021E013FEF797
:1034E00088FE10BD10B50022028802F441520B88FC
:1034F0004C8823438C882343CC8823430C89234363
:103500004C8923438C892343CC8923431A4302806B
:10351000838B4FF2FF74234083830B8A038210BD99
:103520002DE9F04F85B005460C464FF00009022703
:103530004FF000084FF0010B0026B246A88B4FF267
:1035400040010840A88302202884B5F81C90A06898
:10355000022801D100BF38E0A08810B94FF0010B5C
:1035600001E04FF0020B8D48854200D100E000BF22
:103570006846FEF7AAFDDDF800A0E088B0F5007F00
:103580000AD14FEA1A2000EB80004000A168B0FB8E
:10359000F1F0401D86B20BE04FEA4B10BAFBF0F0A1
:1035A00000EB80004000A168B0FBF1F0401D86B246
:1035B0000A20B6FBF0F606F00108A6EB0800C0F3FF
:1035C0004F074FF6FF7000EA0828022F01DBFF2F9C
:1035D00002DD02274FF00008E08840EA0800384387
:1035E0002884A088A189084361880843218808436A
:1035F00040F4006040EA0909A5F81C9005B0BDE858
:10360000F08F0021018041808180C1800181418152
:103610008181C181072101827047002101804180A1
:103620008180C1800221816000218181704721B1A8
:10363000028842F04002028004E002884FF6BF7325
:103640001A400280704721B1828B42F480628283EB
:1036500004E0828B4FF6FF331A408283704730B507
:10366000002400230C110125A540ABB21AB18588B6
:103670001D43858002E085889D43858030BD1AB159
:1036800083880B43838002E083888B438380704769
:1036900081817047014688897047A1F57E42FF3AD3
:1036A00004D0028842F48072028004E002884FF65F
:1036B000FF631A400280704721B1828842F0040201
:1036C000828004E082884FF6FB731A408280704744
:1036D00002884FF2FF731A40028002880A43028078
:1036E0007047018841F480510180704721B1028800
:1036F00042F40052028004E002884DF6FF731A4043
:103700000280704702460020012901D0108B00E0A2
:10371000908A70470146088A7047B1F5804F04D1FE
:10372000028842F48042028004E002884BF6FF7374
:103730001A40028070470246002013890B4201D0D4
:10374000012000E000207047CA4302817047F0B5B5
:103750000246002000240023002501F00F07012667
:10376000BE40B4B20B1101269E40B3B2968806EA61
:1037700003051689264202D00DB1012000E0002089
:10378000F0BD10B5002201F00F040123A3409AB24E
:10379000D343038110BD00000030014000380040D9
:1037A000003C0040FDF795FFFEF71CF8FDF793FF86
:1037B00000BFFEE707203049087001208870002014
:1037C000C870FF20087148710846407820F03F001B
:1037D000401C48700846407820F040004030487057
:1037E000FE208871084600782449087022484078F5
:1037F0008006000E20494978C1F3801140EA41005B
:103800001E4948701C48807888701B48C078C87072
:10381000194800790871184840794871164880792C
:1038200088710120704710B5FFF7C4FF042000F035
:103830003BF810BD10B51620FDF7A6F90120FDF7E5
:103840007CFF07210D48FDF793FC0120FDF775FF74
:103850001A20FDF799F900BF02210948FEF77DFA09
:103860000028F9D10748006880F001000649C1F836
:103870008401FDF7F2FD10BD3C000020A8000020EF
:10388000001001408481224200802242002003E097
:103890000021254A1154401C0528F9DB0021234A48
:1038A0001160234A1160704701461F48204A126880
:1038B000805C78B91C481E4A126881541C48006814
:1038C000401C0522B0FBF2F302FB1300184A106003
:1038D000002070470120FCE71348144A1268805CFE
:1038E000A0B11148114A1268815C00200E4A0F4BAA
:1038F0001B68D0540D480068401C0522B0FBF2F351
:1039000002FB1300094A1060084670470220FCE7DA
:1039100010B5FFF7E1FF0446042C02D1FFF78AFF40
:1039200000BF00BF204610BD4C0000205400002006
:1039300058000020704700000FB4044910B503AAD6
:10394000029800F009F810BC5DF814FB2400002078
:103950007047704770477047074B70B50D467B4402
:1039600000F011F80446284600F020F810B14FF09E
:10397000FF3070BD204670BDC5DEFFFF01694A1CE7
:1039800002610878704700B58FB0CDE901310021A0
:10399000059105497944CDE903101146684600F0C8
:1039A0002EF80FB000BD0000E5FFFFFF007B00F028
:1039B00080007047754600F03BF8AE46050069464A
:1039C000534620F00700854618B020B5FEF754F89E
:1039D000BDE820404FF000064FF000074FF0000810
:1039E0004FF0000B21F00701AC46ACE8C009ACE891
:1039F000C009ACE8C009ACE8C0098D4670472DE9A4
:103A0000F04106460024D6E90170F568804602E0E0
:103A10004146B847641C3046A8470028F8D12046E4
:103A2000BDE8F0810446AFF300802046FCF7C7FBF9
:103A300000487047D000002090EA010F48BF81F095
:103A4000004100F16E82421A3CBF801A89184FEA89
:103A5000D0524FF07F4C1CEA410FA2EBD15318BF5C
:103A60009CEA026F00F03B804FF0004C4CEA0020D3
:103A70004CEA012121FA03FC10EB0C0C1ED202F1DE
:103A8000FF325FEA1C2040EBC25038BF70471CF089
:103A90007F0F4FEA400C18BFBCF17F4F38BF704713
:103AA000C3F12003994008BF20F00100BCF17F4F13
:103AB00038BF7047A0F1C04000F01DBA4FEA3C008B
:103AC000000A40EBC25028BF1CF0FF0F4FEA400C29
:103AD000E6D018BFBCF17F4F38BF7047EAE79CEAD9
:103AE000026F05D010EA5C0F08BF00F0004070477D
:103AF00010B500F0BAF900BF64FBBE3E401058BFDD
:103B0000C0F14040491058BFC1F140418142EFF33C
:103B1000008070474FF47F0C1CEAD0121EBF1CEAD5
:103B2000D11392EA0C0F93EA0C0F00F0858090EA13
:103B3000010F48BF42F4807240F4000C41F40000D1
:103B40002CF07F4120F07F4000B58142A2EB0302C0
:103B50000FF2081CACEB504EC0F100009EF800E0E4
:103B60004FEA4E0E00FB0EFC38BF49004FEA2C1CFA
:103B700002F5FA020CFB0EF34FEACE1E4FEA112CAF
:103B80004FEAC1210EEB635E42EB22420EFB0CFCBE
:103B90004FEA1C5300FB03114FEA112C4FEA01318D
:103BA0000EFB0CFC4FEADC4C00FB0C11C14228BFA1
:103BB00009184CEB03335DF804EB10EB410143EBC8
:103BC000C250B2F57C0F38BF704729D512F0F00F04
:103BD0001CBF00F1C04000F00040704700818283AC
:103BE0008485868788898B8C8D8E8F91929395960C
:103BF00097999A9C9D9FA0A2A3A5A7A8AAACAEB096
:103C0000B2B3B5B7B9BCBEC0C2C5C7C9CCCED1D49A
:103C1000D7D9DCDFE2E6E9ECF0F3F7FAFE000000CA
:103C20004FEA400C0CF1807CBCF17E4F28BF7047FE
:103C3000B0F1C04000F05FB990EA010F0CEAD11377
:103C400048BF42F48072624538BF634507D213F41F
:103C50007F0F16D080EA010000F00040704710B5D9
:103C600000F003F9097EFC3E00F005B880EA01008F
:103C700000F00040704780EA010000F0004000F0D2
:103C80003AB912F47F0F04BF0248704780EA01007E
:103C900000F031B90000C07FC10DD1F19E0206DBFA
:103CA0004FEA002343F0004323FA02F0704700423A
:103CB00007D54FEA4001B1F1FE4F02D24FF00000AC
:103CC000704710B500F0D1F8499224800020704769
:103CD0006FEA200070470000B0FA80F310FA03F298
:103CE000C3F19D030AD0D90501EB1220530638BF5A
:103CF000704700F1010008BF20F00100704700008C
:103D000050EA010C00F113801CF5000F58BFBCF500
:103D1000000F01D48842704707D710F5000F58BF35
:103D200011F5000F15D488427047894270471CF581
:103D3000000F04D5BCF5000FF7D5814270474FF056
:103D4000807C1CEB400F38BF1CEB410F01D281423D
:103D5000704710B500F089F8922449004FF00050E8
:103D60004FF08051FFF7CABE4FF47F0C1CEAD0120F
:103D70001EBF1CEAD11392EA0C0F93EA0C0F00F05D
:103D8000478090EA010F48BF42F480724FF0004C28
:103D90004CEA00204CEA012102EB0302A0FB0113D4
:103DA000A2F50002002918BF43F001035B0028BF01
:103DB0004FEA330342EB22425FEA132C4CEBC25032
:103DC0002EBFBCEB436FB2F57C0F70474FEA036C1C
:103DD000BCF1004F08BF20F00100B2F57C0F38BFE6
:103DE00070470BD582F0FF0212F5803FC8BF7047C5
:103DF00000F1C040D8BF00F00040704700F5000C53
:103E00005FEA4C0C48BF7047B0F1C04000F073B897
:103E100090EA010F0CEAD11348BF42F48072624568
:103E200038BF634504D280EA010000F000407047CB
:103E300010B500F01AF800BF8900013E00F007B885
:103E400000F009B85FEA410C5FEA1C6C08D080EA18
:103E5000010000F050B85FEA400C5FEA1C6CF6D13C
:103E60004FF00040A0F5800070470EF1020E2EF0DA
:103E7000030E5EF8044B244204D44FEA4102B2F12F
:103E80007F4F11D84FEA4003B3F17F4F0CD80ED1CA
:103E90004FEAD07CB2F17F4F0CEB4C0C0CF1020CD2
:103EA00008BF4CEBD17C04E04FF0080C01E04FEA76
:103EB000D17C0CEB4C0324FA03F404F00704B4F1B6
:103EC000040C06D20EEB840CBDE810404CF0010C43
:103ED0006047DFE80CF0070802024FF00040A0F551
:103EE000800010BD0846420018BFD2F1807288BF22
:103EF00000F0004010BDFF2141EAD050C0057047DE
:103F000080F0004090EA010F7FF59DAD81F0004107
:103F100000F007B890EA010F48BF81F000413FF57B
:103F200092AD421A04D882F00042A0EB0200114484
:103F30004FEAD0524FF07F4C1CEA410FA2EBD15315
:103F400018BF9CEA026F4AD04FF0004C4CEA0020A8
:103F50004CEA012121FA03FCB0EB0C0C0FD412F057
:103F6000FE0F36D05FEA4C001DD5001240EBC25068
:103F700038BF70471CF03F0F18BF70470BE0A2F12D
:103F800001025FEA1C2040EBC25038BF70471CF0B2
:103F90007F0F18BF7047C3F12003994014BF401E24
:103FA00020F00100704780084FEA122308BF7047D5
:103FB000B0FA80FCA2EB0C02CCF1280C60FA0CF0F9
:103FC00093EA122F04BF00EBC25070474FEAC37050
:103FD0007047130A5FEADC1008BF7047F6E79CEAF7
:103FE000026F04D010EA5C0F08BF0020704710B5C4
:103FF000FFF73BFF40DFF63E81F0004070472100B5
:10400000240A05B80000200A270000001100000063
:104010000000D418097000C400084548C02006F705
:10402000000000F80711700101020F40C02A410C86
:1040300081D20400250827013F00075500005F03D7
:10404000008400000000000068400008000000201C
:104050005C0000006C010008C44000085C00002007
:10406000D40600008801000800A24A0400000000F5
:104070000000000001020304060708090100000017
:104080000000000000000000000000000000000030
:1040900000000000010203040102030406070809EE
:1040A00002040608000000000000000000000000FC
:1040B0000000000000000000000000000000000000
:0440C00000000000FC
:0400000508000131BD
:00000001FF
